:100000000C94DA000C9402010C9402010C9402018D
:100010000C9402010C9402010C9402010C94020154
:100020000C9402010C9402010C94E81E0C94571FCE
:100030000C9402010C9402010C9402010C94020134
:100040000C9402010C942E220C9402010C940201D7
:100050000C9402010C9402010C9402010C94E42112
:100060000C9402010C9402010C9402010C94020104
:100070000C9402010C9402010C9402010C940201F4
:100080000C9489210C9402010C9402010C9402013D
:100090000C94EA220C9402010C9402010C940201CB
:1000A0000C9402010C9402010C9402010706050451
:1000B0000100080A0B0C0D090000000024002700B5
:1000C0002A002D0030000000000200090F0000038C
:1000D0000401000C0000000000000000000000000F
:1000E0000000000000000000002300260029002C72
:1000F000002F000408020110408040102040804082
:10010000800802040180402010020110801020406D
:10011000402000000000250028002B002E003100A8
:10012000040404040403040502020202040302029C
:10013000020206060606060604040202020404037E
:10014000080B000202020100090400000102020083
:100150000005240010010524010101042402060504
:100160002406000107058103100040090401000274
:100170000A00000007050202400000070583024054
:1001800000000403090412010002EF0201404123B0
:10019000378000010102030141726475696E6F20AE
:1001A0004C4C430041726475696E6F204D696372F7
:1001B0006F004E2411241FBECFEFDAE0DEBFCDBFAB
:1001C00013E0A0E0B1E0E6E5FFE402C005900D9287
:1001D000A23AB107D9F725E0A2EAB3E001C01D9227
:1001E000AF36B207E1F710E0CAEDD0E004C02197C6
:1001F000FE010E945E26C93DD107C9F70E947B24FB
:100200000C94A9270C940000982F2091DD0481E024
:10021000213208F043C08091B9048111FCCF809154
:10022000DC0432E03093B9049093B8049FEF9093CC
:10023000B7041092B6042093B504ACEBB4E0E5E942
:10024000F4E090E0291331C010929404909194044A
:10025000880F892B8093940480919304813049F511
:1002600010929304809194048093BB008091BC0011
:1002700083FDF8CF85EC8093BC008091B904823077
:10028000E1F38091B7048F3FB1F08091B7048032E1
:10029000A1F08091B704803391F084E01092BB0408
:1002A0001092DD041092BA0408953D9131939F5F3E
:1002B000C9CF85EEE0CF80E0F1CF82E0EFCF83E0E1
:1002C000EDCF9091B9049111FCCF91E09093B904D6
:1002D0004093B8042FEF2093B7041092B604260F72
:1002E0002093B5049093940490919404880F892BE3
:1002F00080939404809193048130F9F410929304D4
:10030000809194048093BB008091BC0083FDF8CF62
:1003100085EC8093BC008091B9048130E1F3809139
:10032000B604861710F46091B604A5E9B4E0E3E7DB
:10033000F4E080E0861303C0089585EEEACF9D9136
:1003400091938F5FF7CF2FB7F89483E08093E90004
:100350009091E800892F807295FF04C09091F2007F
:1003600080E4891B2FBF0895FC01809172048823CB
:1003700011F13FB7F89482E08093E9002091F200F8
:10038000822F90E01816190614F481E090E088237B
:1003900039F0289A44E6409371044091F10040837B
:1003A000222339F02091F200211103C02BE6209383
:1003B000E8003FBF08958FEF9FEF08958091690493
:1003C00081110DC082E08093650484E0809366040F
:1003D000109268041092670481E08093690485E6B6
:1003E00094E00895409138045091390420913604E6
:1003F0003091370442175307B4F49091E800957098
:10040000E1F39091E80092FD19C08093F100809192
:1004100038049091390401968F739927892B19F428
:100420008EEF8093E8008091380490913904019612
:10043000909339048093380481E0089580E0089512
:10044000EF92FF920F931F93CF93DF93F82E192F04
:10045000E62E042F81E0860F880F0E94F20183E0D0
:100460000E94F201CF2DD12FEC0EFD2EF11CCE15E6
:10047000DF05B9F007FF13C0FE0184910E94F2016D
:10048000182F80E00E94F201812321968111EFCF85
:10049000DF91CF911F910F91FF90EF900895888188
:1004A000EDCF81E0F5CFDF92EF92FF920F931F9394
:1004B000CF93DF93D82E8A01EB017B01E40EF51E6A
:1004C000CE15DF0559F0D7FE12C0FE0184910E94BF
:1004D000F20121968111F4CF0FEF1FEFC801DF91D8
:1004E000CF911F910F91FF90EF90DF900895888139
:1004F000EECF0F931F93CF93DF931F92CDB7DEB74D
:1005000082E0898342E450E060E471E080E80E9488
:1005100053020E94DE01DC0112960D911C9101151F
:10052000110589F0D801ED91FC910280F381E02D55
:10053000BE016F5F7F4FC801099597FD04C0F801A8
:1005400000851185ECCF89810F90DF91CF911F91AC
:100550000F910895615030F02091F100FC0120834B
:100560000196F8CF289A84E6809371040895CF937A
:10057000DF931F92CDB7DEB76983DC01ED91FC916B
:100580000280F381E02D41E050E0BE016F5F7F4FBC
:1005900009950F90DF91CF91089583E08093E90052
:1005A0008091F200882319F08AE38093E80008958F
:1005B0000E94A30190E00895CF93DF931F92CDB7DF
:1005C000DEB7FC018485958597FD08C02FEF3FEFCE
:1005D000358724870F90DF91CF910895CE01019642
:1005E0000E94B401019719F4898190E0F3CF8FEF55
:1005F0009FEFF0CF0F931F93CF93DF931F92CDB751
:10060000DEB78C01FC018485958597FF0BC0CE0178
:1006100001960E94B401019771F4898190E0F8017C
:1006200095878487F801848595850F90DF91CF9118
:100630001F910F9108958FEF9FEFF1CFFC018485FB
:10064000958597FD0BC09FB7F89482E08093E900F1
:100650008091F2009FBF90E0019608959FB7F894B3
:1006600082E08093E9008091F2009FBF90E00895BE
:1006700081508F3008F047C0E82FF0E0EE5BFC4F70
:100680000C945E265F036303510357035B038303EC
:100690008303830366036C03700374037A03830389
:1006A0007E03809180008F778093800008958091F1
:1006B00080008F7DF9CF80918000877FF5CF84B552
:1006C0008F7784BD089584B58F7DFBCF8091900096
:1006D0008F77809390000895809190008F7DF9CF5F
:1006E00080919000877FF5CF8091C0008F778093B5
:1006F000C00008958091C0008F7DF9CF8091C20025
:10070000877F8093C20008951F93CF93DF93282F94
:1007100030E0F901EA53FF4F8491F901ED50FF4FAA
:10072000D491F901E05EFE4FC491CC23A9F0162FBD
:1007300081110E943803EC2FF0E0EE0FFF1FEE5EF8
:10074000FE4FA591B4918FB7F894EC91111108C0A8
:10075000D095DE23DC938FBFDF91CF911F91089559
:10076000DE2BF8CFCF93DF9390E0FC01ED50FF4FED
:100770002491805E9E4FFC0184918823D1F090E00B
:10078000880F991FFC01E854FF4FA591B491FC011B
:10079000EE5EFE4FC591D49161110EC09FB7F894E3
:1007A0008C91E22FE0958E238C932881E223E883BD
:1007B0009FBFDF91CF9108958FB7F894EC91E22B12
:1007C000EC938FBFF6CF4F925F926F927F928F9292
:1007D0009F92AF92BF92CF92DF92EF92FF920F93D0
:1007E0001F93CF93DF9300D000D01F92CDB7DEB719
:1007F0008B0129013A01909101018917C9F09F3FAE
:1008000009F47DC00F900F900F900F900F90DF9123
:10081000CF911F910F91FF90EF90DF90CF90BF90FD
:10082000AF909F908F907F906F905F904F900895C2
:10083000EFE3F1E094919D8397FDE4CF61E00E94A6
:10084000B2038D81882321F09D81923009F04DC142
:100850004801B12CA12C60E072E18AE790E0A5018B
:1008600098010E94E32529833A834B835C836901C5
:100870007A0181E0C81AD108E108F1089FEFC91692
:10088000D104E104F10409F00CF405C160E472E460
:100890008FE090E0A50198010E94E32569017A01AB
:1008A00081E0C81AD108E108F1089D81923009F071
:1008B000C6C08FEFC816D104E104F10409F00CF4AE
:1008C000F2C060E970ED83E090E0A50198010E941C
:1008D000E32569017A0191E0C91AD108E108F1081C
:1008E0008FEFC816D104E104F10411F00CF0BDC182
:1008F000411451046104710409F484CF53C18093FD
:100900000101EFE3F1E094919D839F3F09F47ACFD9
:10091000913059F168F0933009F449C0943009F4EA
:100920006CC09D8197FD6ECF61E00E94B2038CCFB9
:1009300014BC15BC94B5926094BD95B5916095BDFD
:10094000282F30E0F901E05EFE4FE491F0E0EE0F79
:10095000FF1FEE5EFE4F45915491F901ED50FF4FA0
:10096000E491E09322041D8269CF109280001092DE
:100970008100909181009860909381009091810016
:10098000916090938100282F30E0F901E05EFE4FE6
:10099000E491F0E0EE0FFF1FEE5EFE4F45915491A3
:1009A000F901ED50FF4FE491E093210447CF1092FD
:1009B0009000109291009091910098609093910016
:1009C00090919100916090939100282F30E0F9016F
:1009D000E05EFE4FE491F0E0EE0FFF1FEE5EFE4F93
:1009E000459154915093300440932F04F901ED50F8
:1009F000FF4FE491E093310421CF1092C000109298
:100A0000C1009091C10098609093C1009091C10085
:100A100091609093C100282F30E0F901E05EFE4F15
:100A2000E491F0E0EE0FFF1FEE5EFE4F4591549112
:100A3000F901ED50FF4FE491E0932004FFCE9FEFCA
:100A4000C916D104E104F10409F00CF44CC068E4C7
:100A500078EE81E090E0A50198010E94E32569010C
:100A60007A0181E0C81AD108E108F1089D81992333
:100A700009F439C18FEFC816D104E104F10411F073
:100A80000CF03AC1411451046104710409F453C0DB
:100A900091E09D8387C081E09D81911104C095B54F
:100AA000987F892B85BD2FEF3FEFA9014114510499
:100AB0006104710409F076C08D81813009F43EC073
:100AC0000CF0A0C081119ECEC7BC20932B043093A4
:100AD0002C0440932D0450932E0480916E0082606C
:100AE00080936E008FCE82E0D7CFB12CA12C60E036
:100AF00072E18AE790E0A50198010E94E32569016F
:100B00007A0181E0C81AD108E108F108C114D104C2
:100B100091E0E906F10424F591E08D81813089F5B9
:100B200080918100887F892B80938100411451043A
:100B300061047104B9F52FEF3FEFA901D09289004C
:100B4000C0928800209327043093280440932904FE
:100B500050932A0480916F00826080936F0052CE80
:100B600068E478EE81E090E0A50198010E94E32519
:100B700069017A0181E0C81AD108E108F10893E01F
:100B8000CCCF8D818330E1F480919100887F892BD7
:100B9000809391002FEF3FEFA901411451046104AC
:100BA0007104B1F1D801AA0FBB1FA30192010E94E9
:100BB000022628EE33E040E050E00E940D267CCF74
:100BC0008D81843009F06FCF8091C100887F892B9F
:100BD0008093C1002FEF3FEFA9014114510461043C
:100BE000710401F7C092CF002093230430932404B2
:100BF0004093250450932604809172008064809372
:100C0000720000CE9D81933019F0943059F3FACDE3
:100C1000D0929900C092980020933204309333040C
:100C20004093340450933504809171008260809326
:100C30007100E8CD84E09FEFC916D104E104F1040E
:100C400009F008F42CCFC980DA80EB80FC809AE0B0
:100C5000F594E794D794C7949A95D1F781E0C81A90
:100C6000D108E108F10885E01ACF68E478EE81E068
:100C700090E0A50198010E94E32569017A0181E0D5
:100C8000C81AD108E108F1089FEFC916D104E104A0
:100C9000F10409F00CF407CF64E274EF80E090E017
:100CA000A50194010E94E32569017A0181E0C81A37
:100CB000D108E108F1089FEFC916D104E104F1045D
:100CC00009F008F415CE62E17AE780E090E0A50132
:100CD00094010E94E32569017A0181E0C81AD108D4
:100CE000E108F1081CC083E09FEFC916D104E104BC
:100CF000F10409F00CF4D3CE62E17AE780E090E0F1
:100D0000A50194010E94E32569017A0181E0C81AD6
:100D1000D108E108F1089D81992309F48BCF9FEF59
:100D2000C916D104E104F10409F008F4BCCEC9806D
:100D3000DA80EB80FC808AE0F594E794D794C7943E
:100D40008A95D1F781E0C81AD108E108F108ABCE45
:100D50003FB7F89480911C0490911D04A0911E044B
:100D6000B0911F0426B5A89B05C02F3F19F001962E
:100D7000A11DB11D3FBFBA2FA92F982F8827BC01F5
:100D8000CD01620F711D811D911D42E0660F771F1D
:100D9000881F991F4A95D1F708958F929F92AF921D
:100DA000BF92CF92DF92EF92FF926B017C010E9483
:100DB000A8064B015C01C114D104E104F104B9F0AF
:100DC0000E94A806681979098A099B09683E734040
:100DD0008105910580F321E0C21AD108E108F108EC
:100DE00088EE880E83E0981EA11CB11CE4CFFF9012
:100DF000EF90DF90CF90BF90AF909F908F9008952D
:100E00008F929F92AF92BF92CF92DF92EF92FF921A
:100E10000F931F93CF93DF936C017B018A01809125
:100E20000D01882309F45CC080917204882309F4C1
:100E300057C080913C0480FF05C08091E000826033
:100E40008093E000E801B12C8AEFA82E93E0892E70
:100E50002AE3922E209711F4BB20D9F10E94A3011E
:100E600081110AC0AA94AA20D9F161E070E080E063
:100E700090E00E94CD06EECF8C171D0611F00CF00D
:100E80008C2F9FB7F8948092E9002091E80025FD0F
:100E900002C09FBFDFCF282F30E0C21BD30BF7016A
:100EA000815020F041914093F100FACFE20EF31E01
:100EB000BB2021F09092E800B12CEBCF8091E800AC
:100EC00085FDE7CF9092E800BB24B394209709F307
:100ED000F3CF5D9A84E680933B04101611063CF034
:100EE00081E090E0F6019383828310E000E0C80186
:100EF000DF91CF911F910F91FF90EF90DF90CF90F6
:100F0000BF90AF909F908F9008952FB7F894609105
:100F100018047091190480911A0490911B042FBF3A
:100F200008950F931F93CF93DF93FA018FEF808380
:100F300086E0820F8183DB0112969C911297928347
:100F400013969C9193830F3F110509F098F4048345
:100F50002B5F3F4FDF01A20FB31FEF0120E0815055
:100F6000990BAE014E1B5F0B4817590734F43991AA
:100F7000230FF7CF93E09483EBCF2C93DF91CF91A6
:100F80001F910F9108950F931F93CF93DF93E90162
:100F9000DA011596F901202F30E08F010C1B1D0B93
:100FA000021713071CF401910D93F7CF10E000E036
:100FB0000E949107DF91CF911F910F9108950F9398
:100FC0001F93890130E020E00E9491071F910F914B
:100FD0000895DC0114962D913C911597243031052C
:100FE000D9F028F4232B79F080E890E0089525309B
:100FF0003105C1F026303105B9F7ED91FC9104843B
:10100000F585E02D05C0ED91FC910190F081E02D7A
:10101000099590E080E00895ED91FC910084F185C0
:10102000E02DF6CFED91FC910284F385E02DF0CF19
:101030008FEF9FEF0895CF93DF93DC019F962D9163
:101040003C91D0972430310571F128F4232BE9F03D
:10105000DF91CF910895EC012530310561F1263003
:101060003105B1F78A819B81DC01ED91FC91E65756
:10107000FF4F0190F081E02D66E373E00995E88170
:10108000F9810484F585E02D28C0FC01628173811B
:101090000190F081E02D0088F189E02D18964C91A7
:1010A000DF91CF910994ED91FC910084F185E02DC1
:1010B000DF91CF9109948A819B81DC01ED91FC91B4
:1010C000E657FF4F0190F081E02D68E273E009954B
:1010D000E881F9810284F385E02DCE01E9CFCF9339
:1010E000DF93EC018A819B81DC01ED91FC91E85A50
:1010F000FF4F0190F081E02D6885099518AA1FA681
:1011000090E080E0DF91CF910895CF93DF93DA01F3
:1011100070E085539F4F9D01241B350B2617370721
:10112000DCF42D9130E0220F331FFC01C081D1810E
:10113000C20FD31FE881F981E0812E2F30E0F90141
:10114000EE0FFF1FE20FF31FED50FC4F20812F7BAE
:10115000208319821882DFCF90E080E0DF91CF9169
:1011600008954F925F926F927F928F929F92AF926B
:10117000BF92CF92DF92EF92FF920F931F93CF9384
:10118000DF93EC016A0179018A01462E512C5C0142
:101190004BECA40EB11C38E8632E712C48E5842E6C
:1011A00042E0942EC8018C199D09841595050CF018
:1011B0008BC0E881F981E858FF4F0190F081E02D64
:1011C00063E473E0CE010995D8018D918D0190E023
:1011D000880F991FF50120813181820F931FDC0157
:1011E0004D915C91052E000C660B770BE881F9811F
:1011F000EC57FF4F0190F081E02D2AE030E0CE0166
:101200000995E881F981E858FF4F0190F081E02DC0
:101210006AE473E0CE010995F701419151917F0194
:1012200070E060E0E881F981EC56FF4F0190F081B9
:10123000E02D2AE030E0CE010995F8013197808158
:1012400090E0880F991FD5012D913C91820F931F3B
:10125000DC01ED91FC9160816C3008F0A3CFD701E7
:1012600012972D913C918181A301481B510987FD63
:101270005395CA01880F991F880F991F281739079E
:101280007CF08281D401A81BB10987FDB395CD0103
:10129000880F991F880F991F281739070CF4C90167
:1012A0000297AC01440F551F7FB7F894862F90E04A
:1012B0009C01220F331F820F931FFC01ED50FC4F46
:1012C000528341837FBF6ECF90E080E0DF91CF916A
:1012D0001F910F91FF90EF90DF90CF90BF90AF9054
:1012E0009F908F907F906F905F904F90089508959A
:1012F00090E080E00895611106C0B90150E08EEDE4
:1013000094E00E94000790E080E008954F925F9281
:101310006F927F92BF92CF92DF92EF92FF920F93E4
:101320001F93CF93DF93B42E611135C0C42ED12CFF
:101330007901D0E0C0E0CC15DD0558F50E948507A5
:101340006093E6047093E7048093E8049093E904C3
:101350008EED94E00E94DC0297FF34C00E94850766
:101360004090E6045090E7046090E8047090E9042F
:1013700064197509860997094090E2045090E304C6
:101380006090E4047090E504641575058605970582
:10139000F8F2F801C083F80180818B1110C090E051
:1013A00080E0DF91CF911F910F91FF90EF90DF9040
:1013B000CF90BF907F906F905F904F90089583E89B
:1013C00090E0EFCFF70181937F012196B4CFCF93C7
:1013D000DF93611106C0EA018EED94E00E941E03C6
:1013E000888390E080E0DF91CF9108958F929F9263
:1013F000AF92BF92FF920F931F93CF93DF93EC01B5
:10140000F62E49015A01E881F981E85AFF4F01900F
:10141000F081E02D0995E881F98106A4F7A5E02D7A
:10142000A50194016F2DCE010995DF91CF911F91F8
:101430000F91FF90BF90AF909F908F9008954F9223
:101440005F926F927F92AF92BF92EF92FF920F9353
:101450001F93CF93DF93FC01EF53FF4FE081F0E048
:10146000B12CA12C7C0172ECE70EF11CAE16BF066C
:10147000BCF4E701A881B981E501CC0FDD1FCC0FD9
:10148000DD1FAC0FBD1F4D905D906D907C902415BD
:1014900035054605570520F0DFEFAD1ABD0AE6CF4A
:1014A000A114B10419F0E1E0AE1AB10861111CC039
:1014B0008E539F4FA501440F551F440F551FEC013C
:1014C00088819981480F591F8FEF9FEF9093EB040C
:1014D0008093EA04FA0180819181A281B381E801BD
:1014E00088839983AA83BB8390E080E0DF91CF91CA
:1014F0001F910F91FF90EF90BF90AF907F906F90F2
:101500005F904F90089581E090E008958091F103FD
:101510009091F003891B990B089590E080E0089565
:101520000895089587539F4FDC01ED91FC91E60FDC
:10153000F11D8081882329F08F5F808390E080E017
:1015400008951092F0031092F1031092BB041092D0
:10155000DD041092B90481E08093B80410929304E2
:1015600061E082E00E94840361E083E00E948403E2
:101570008091B9008E7F8093B9008091B9008D7FF2
:101580008093B90088E48093B80085E48093BC0020
:1015900080E99AE09093EF038093EE0381E99AE06B
:1015A0009093ED038093EC03C9CF5F926F927F928B
:1015B0008F929F92AF92BF92CF92DF92EF92FF9263
:1015C0000F931F93CF93DF93D42F822E61E0802F50
:1015D0000E94B2038E2D8170582ECE2DC095C17001
:1015E0006C2F802F0E94840310E0F12CE12C912CB1
:1015F0006D2E712CE814F90434F5652D802F0E94AE
:10160000840330E020E026153705A4F4812F820FF3
:1016100090E0F601E80FF91F40818A0D9B1D4EBD39
:1016200000000DB407FEFDCF4EB5FC0140832F5FD7
:101630003F4FE9CF6C2F802F0E948403FFEFEF1AFA
:10164000FF0A1D0FD7CF90E080E0DF91CF911F916F
:101650000F91FF90EF90DF90CF90BF90AF909F9051
:101660008F907F906F905F9008958CB5411105C069
:1016700080628CBD90E080E008958F7DFACFCF939B
:10168000CFB7F8948091EB03811127C0E1E3F1E03B
:101690008491E4E0F1E09491E82FF0E0EE0FFF1F79
:1016A000E854FF4FA591B491EC91E92321F461E056
:1016B00081E10E94840361E081E10E94B2038CB564
:1016C00080618CBD8CB580648CBD61E08FE00E9430
:1016D000B20361E080E10E94B2038091EB038F5F6F
:1016E0008093EB03CFBF90E080E0CF9108958F927D
:1016F0009F92AF92BF92CF92DF92EF92FF920F93A1
:101700001F93CF93DF935A0169018A01E62EF12CD2
:10171000C8018A199B098E159F050CF0A8C061E0CD
:10172000F80181918F010E94B203F60181906F014F
:10173000C82DD0E0F8013197908061E0892D0E949A
:10174000B203209729F460E0892D0E948403E0CF42
:10175000CF3FD10511F461E0F7CFE92DF0E0EA5376
:10176000FF4FE491E150EF3008F07CC0F0E0E55429
:10177000F44F0C945E26CA0BCF0BD40BDE0BE80B98
:10178000320C320C320CF20BFC0B060C100C1D0C44
:10179000320C250C84B5806884BD87BCB9CF84B574
:1017A000806284BD88BCB4CF8091800080688093C3
:1017B0008000D0938900C0938800AACF80918000D8
:1017C000806280938000D0938B00C0938A00A0CF6A
:1017D00080918000886080938000D0938D00C093BA
:1017E0008C0096CF80919000806880939000D09379
:1017F0009900C09398008CCF809190008062809374
:101800009000D0939B00C0939A0082CF809190006B
:10181000886080939000D0939D00C0939C0078CF07
:101820008091C00080688093C0008091C0008F7B51
:101830008093C0008092CF006BCF8091C000806207
:101840008093C0008092D00063CF8091C2008860F6
:101850008093C2008091C2008B7F8093C2008092EF
:10186000D20056CFC038D1050CF075CF6CCF90E0C8
:1018700080E0DF91CF911F910F91FF90EF90DF906B
:10188000CF90BF90AF909F908F9008958F929F922E
:10189000AF92BF92CF92DF92EF92FF920F931F937E
:1018A000CF93C62F49015A01670178018114910431
:1018B000A104B104F9F061E08C2F0E94B203A801E9
:1018C0009601CD28CE28CF2819F420E030E0A901D8
:1018D000B4018C2F0E94E30390E080E0CF911F9130
:1018E0000F91FF90EF90DF90CF90BF90AF909F90BF
:1018F0008F9008958091010168130DC0EFE3F1E02E
:10190000E4918FEF80930101E13069F048F0E3301A
:1019100081F0E430A1F060E08C2F0E948403DCCFE2
:1019200010926E00F8CF80916F008D7F80936F00D2
:10193000F2CF809171008D7F80937100ECCF809108
:1019400072008F7B80937200E6CF7F928F929F927E
:10195000AF92BF92CF92DF92EF92FF920F931F93BD
:10196000CF93DF937A016901EA0180E0812C28E0BE
:10197000B22E062F10E0F601E80DF11D9E012E1982
:101980003F09201731070CF03BC0B11032C08083F3
:10199000839497E0992EA99060E08A2D0E94B2036B
:1019A0002A2D30E0F901EA53FF4F8491F901ED50FF
:1019B000FF4FA490F901E05EFE4F74907720F1F0A4
:1019C00081110E943803E72DF0E0EE0FFF1FEB516D
:1019D000FF4FA591B491EC91AE2231E009F430E0D3
:1019E000832F092C01C0880F0A94EAF78B29B92CA0
:1019F000C2CF99249A949B0CB82ECDCF80E0F1CF22
:101A0000808390E080E0DF91CF911F910F91FF9054
:101A1000EF90DF90CF90BF90AF909F908F907F908E
:101A20000895CF92DF92EF92FF920F931F93CF937F
:101A3000DF937901EA01D12CC12C062F10E0C016EA
:101A4000D10604F561E089910E94B203F60183E0BA
:101A5000F595E7958A95E1F7EE0DFF1D608170E041
:101A6000C6018770992702C0759567958A95E2F738
:101A70006170FE01319780810E9484038FEFC81A44
:101A8000D80ADDCF90E080E0DF91CF911F910F91D8
:101A9000FF90EF90DF90CF900895CF92DF92EF927A
:101AA000FF920F931F93CF93DF93FC016130E9F016
:101AB00030F0623009F450C081E890E00DC081E060
:101AC0008093000182899389A489B589868B978B3D
:101AD000A08FB18F90E080E0DF91CF911F910F91A7
:101AE000FF90EF90DF90CF900895DC01AC54BF4F92
:101AF0006C91662309F390E080E070E08F010B5455
:101B00001F4F861797070CF044C0E801A881B981E0
:101B1000EC01CC0FDD1FCC0FDD1FAC0FBD1FCD9036
:101B2000DD90ED90FC902C153D054E055F0591F480
:101B3000880F991FDF01A954BF4F0D90BC91A02DB4
:101B4000A80FB91F8C9180930001268B378B408F93
:101B5000518FC0CF0196D5CFDC01A754BF4F8D91D7
:101B60009D910D90BC91A02D281739074A075B075E
:101B700080F0DF01A354BF4F8D919D910D90BC91DA
:101B8000A02D82179307A407B50718F01092000143
:101B9000DCCF82E890E0A0CF6F927F929F92AF92CD
:101BA000BF92CF92DF92EF92FF920F931F93CF934A
:101BB000DF93F9011082DA01F8E0BF2EA12C70E06A
:101BC000C8E0D0E0FD01E41BF50BE617F7070CF0C9
:101BD00055C0ED91E23108F0E251F0E0E455FF4FDD
:101BE000E49110917B00FE2FFF0FFF0FF0721F7D1D
:101BF000F12BF0937B0000910001F0E40F9F800136
:101C00001124E770E02BE0937C00E0917A00E0641F
:101C1000E0937A00E0917A00E6FDFCCFE091780055
:101C2000F09179003F01FC019188992059F27901E6
:101C3000EA0CF11CFC0101890919110BF30102C026
:101C4000F695E7950A95E2F78F016E01CB18D1085A
:101C500001C0000FCA94EAF7F7011081012B00833D
:101C60009B1410F4B918AECF9B18A39489010A0DE8
:101C7000111DF8011082E8E0BE2ED7CF90E080E081
:101C8000DF91CF911F910F91FF90EF90DF90CF9058
:101C9000BF90AF909F907F906F9008950E948507AE
:101CA00028EE33E040E050E00E940D26CA01B90161
:101CB00008950C948507CB01BA010C94CD069CB510
:101CC0009C7F282F2370922B9CBD9DB582FB2227E1
:101CD00020F9892F8E7F822B8DBD08954F925F92C0
:101CE0006F927F928F929F92AF92BF92CF92DF922C
:101CF000EF92FF920F931F93CF93DF937C01290103
:101D00003A01D0E0C0E04C0184EC880E911C6701E0
:101D1000A5ECCA0ED11C5701B7ECAB0EB11CF401F7
:101D2000808190E0C817D90724F5D601ED91FC9188
:101D30009E01220F331F220F331FE20FF31F40813A
:101D4000518162817381441655066606770620F13B
:101D5000F8014083518362837383CC0FDD1FF70149
:101D6000E953FF4F80819181C80FD91F88810E945C
:101D70005F0E90E080E0DF91CF911F910F91FF9077
:101D8000EF90DF90CF90BF90AF909F908F907F901B
:101D90006F905F904F90089501978C179D0789F47D
:101DA000D8014D935D936D937C931397D501ED917D
:101DB000FC91CE01880F991FE80FF91F80810E94C6
:101DC0005F0E2196ACCF9CB5937F892B8CBD089577
:101DD000413061F038F0423059F0433059F090E032
:101DE00080E0089580E00E94E30EF9CF84E0FBCF0D
:101DF00088E0F9CF8CE0F7CF2F923F924F925F921D
:101E00006F927F928F929F92AF92BF92CF92DF920A
:101E1000EF92FF920F931F93CF93DF93CDB7DEB76F
:101E2000A1970FB6F894DEBF0FBECDBF6C01362E62
:101E3000CA01B901611571058105910511F5D60138
:101E4000ED91FC9100ACF1ADE02D40E3632DC601B6
:101E5000A1960FB6F894DEBF0FBECDBFDF91CF9134
:101E60001F910F91FF90EF90DF90CF90BF90AF90B8
:101E70009F908F907F906F905F904F903F902F90AA
:101E80000994FE0131964F01412C512C32015F0122
:101E9000E02EF12C10E000E0A80197010E940D2631
:101EA000222E39A3DA01A30192012F5F3F4F4F4F3A
:101EB0005F4FF40161934F01622D79A1CD0161154E
:101EC00071058105910599F5790110E000E0D601D1
:101ED000ED91FC9100ACF1ADE02DD201A01BB10B56
:101EE000AA0DBB1D4C914A3028F5405D632DC601FB
:101EF00009950F5F1F4FE016F10649F7A1960FB63F
:101F0000F894DEBF0FBECDBFDF91CF911F910F912F
:101F1000FF90EF90DF90CF90BF90AF909F908F9009
:101F20007F906F905F904F903F902F900895290180
:101F30003A01B2CF495CDACF089508950895089523
:101F4000089508950895089581E090E0089581E04E
:101F500090E0089581E090E0089581E090E0089598
:101F6000FF920F931F93CF93DF93EC01F62EE8813E
:101F7000F981EA5BFF4F0190F081E02D0995E8813E
:101F8000F981E85BFF4F0190F081E02D6F2DCE01CC
:101F9000DF91CF911F910F91FF9009941F93CF93E1
:101FA000DF93EC01162FE881F981EC5BFF4F019084
:101FB000F081E02D0995E881F981E85BFF4F019000
:101FC000F081E02D612FCE01DF91CF911F91099417
:101FD0001F93CF93DF93EC01162FE881F981EE5B1D
:101FE000FF4F0190F081E02D0995E881F981E85BD0
:101FF000FF4F0190F081E02D612FCE01DF91CF9155
:102000001F9109941F93CF93DF93EC01162FE88162
:10201000F98106ACF7ADE02D0995E881F981E85B1F
:10202000FF4F0190F081E02D612FCE01DF91CF9124
:102030001F9109941F93CF93DF93EC01162FE88132
:10204000F98104ACF5ADE02D0995E881F981E85BF3
:10205000FF4F0190F081E02D612FCE01DF91CF91F4
:102060001F9109941F93CF93DF93EC01162FE88102
:10207000F98102ACF3ADE02D0995E881F981E85BC7
:10208000FF4F0190F081E02D612FCE01DF91CF91C4
:102090001F9109941F93CF93DF93EC01162FE881D2
:1020A000F98100ACF1ADE02D0995E881F981E85B9B
:1020B000FF4F0190F081E02D612FCE01DF91CF9194
:1020C0001F9109941F93CF93DF93EC01162FE881A2
:1020D000F98100ACF1ADE02D4DE00995E881F98181
:1020E00000ACF1ADE02D4AE0612FCE01DF91CF9140
:1020F0001F9109940F931F93DC01ED91FC91011541
:10210000110539F400ACF1ADE02D422F1F910F9174
:1021100009940A30110541F4EE5BFF4F0190F08104
:10212000E02D1F910F910994E856FF4F0190F08127
:10213000E02D09951F910F9108950F93DC01ED910A
:10214000FC91E856FF4F0190F081E02D0AE00995DF
:102150000F910895CF92DF92EF92FF920F931F930A
:10216000CF93DF93EC01162F69017A01F7FE0FC0C0
:10217000E881F98100ACF1ADE02D4DE20995F094D4
:10218000E094D094C094C11CD11CE11CF11CE881E6
:10219000F981E856FF4F0190F081E02D0AE0A70198
:1021A0009601612FCE010995DF91CF911F910F917B
:1021B000FF90EF90DF90CF9008959A0150E040E0BB
:1021C000DC01ED91FC91EC5BFF4F0190F081E02D83
:1021D00009949A01550F440B550BDC01ED91FC91CC
:1021E000EE5BFF4F0190F081E02D0994DC01ED9151
:1021F000FC9104ACF5ADE02D0994FF920F931F9371
:10220000CF93DF93EC01F62E8A01F80141918F0103
:10221000442349F0E881F98100ACF1ADE02D6F2D48
:10222000CE010995F2CFDF91CF911F910F91FF90D1
:102230000895CF93DF931F92CDB7DEB74983DC01BA
:10224000ED91FC9106A8F7A9E02D9E012F5F3F4F6D
:1022500041E009950F90DF91CF91089581E090E0E2
:1022600008950895EF92FF920F931F93CF93DF93FA
:1022700000D000D0CDB7DEB77C0119821A821B8254
:102280001C82DC01ED91FC9106A4F7A5E02D8E01E6
:102290000F5F1F4F20E032EC41E050E00995D7017D
:1022A000ED91FC91E657FF4F0190F081E02D6EE437
:1022B00073E0C70109950F900F900F900F90DF9179
:1022C000CF911F910F91FF90EF9008950895089579
:1022D000089585ED8093BC008091BC0084FDFCCF07
:1022E0001092B90408952091C703260F3327331F96
:1022F00021323105ECF42091B904FC0190E080E03A
:10230000243069F082E00895A091C7032191AC01C7
:1023100049555C4FA40FB52FB11D2C93019686171C
:1023200098F38091C703680F6093C70380E0089516
:1023300081E00895E091F0038091F103E81730F413
:10234000F0E0ED58FB4F808190E008958FEF9FEF14
:1023500008959091F0038091F1032FEF3FEF9817CC
:1023600048F4E92FF0E0ED58FB4F208130E09F5F0B
:102370009093F003C9010895CF92DF92EF92FF92FC
:102380000F931F93CF93DF937C01CB018A012091A0
:10239000BA04222389F0EB016B01C40ED51ECC15C3
:1023A000DD0569F06991D701ED91FC910190F08113
:1023B000E02DC7010995F3CF642F0E947311C80166
:1023C000DF91CF911F910F91FF90EF90DF90CF9011
:1023D0000895EF92FF920F93CF93C22FB70181E040
:1023E0008093BA044093DC041092BB041092DD0485
:1023F000402F50E08FE595E00E94BC1181E0CC2396
:1024000019F0C13051F480E00E94040190E080E0B6
:10241000CF910F91FF90EF90089581E00E94040109
:1024200081E890E0F5CFCF93DF931F92CDB7DEB771
:1024300069832091BA042223F9F02091DD0420322F
:1024400058F021E030E0FC013383228390E080E00B
:102450000F90DF91CF9108958091BB04E82FF0E0B9
:10246000E454FB4F998190838F5F8093BB048093EA
:10247000DD0481E090E0ECCF61E0CE0101960E94A6
:102480007311F7CF90E080E00895CB010C94CD2537
:102490002F923F924F925F926F927F928F929F9274
:1024A000AF92BF92CF92DF92EF92FF920F931F9362
:1024B000CF93DF938C015A016A01462E512C3C01C7
:1024C0008BEC680E711C4CE0242E58EB852E5BE0E3
:1024D000952EC6018A199B09841595050CF09FC09D
:1024E000D6013D906D01E32CF12CEE0CFF1CF301A5
:1024F00080819181E80EF91ED7018D919C91892BE5
:1025000041F783E090E00E947F26EC018091F20386
:102510008C3008F081C091E0980F9093F20388838B
:1025200090E0FC01EE0FFF1FE80FF91FED50FC4F8C
:1025300092828182F701D183C08388818C3008F038
:102540004EC061E0832D0E94B2038881282F30E0C5
:10255000F901EE0FFF1FE20FF31FED50FC4F9081CA
:10256000907C232D2F73922B908319821A82622DD7
:102570000E943E26829DA001112430E020E0BA0195
:10258000620F731FFB01EE0FFF1FE60FF71FED50E9
:10259000FC4F908196FD16C02F5F3F4F2C303105C8
:1025A00071F781110FC010928000F2E0F09381006A
:1025B0001092850010928400B19A80916F00826021
:1025C00080936F00E8818E2F90E0FC01EE0FFF1FDB
:1025D000E80FF91FED50FC4F808180648083D801A3
:1025E000ED91FC91E858FF4F0190F081E02D60E6FD
:1025F00073E0C8010995432D50E070E060E0D80118
:10260000ED91FC91EC56FF4F0190F081E02D2AE016
:1026100030E0C80109955DCFBFEFB8838BCF90E064
:1026200080E0DF91CF911F910F91FF90EF90DF90AD
:10263000CF90BF90AF909F908F907F906F905F9062
:102640004F903F902F900895DF92EF92FF920F935B
:102650001F93CF93DF9300D000D0CDB7DEB77C01BE
:102660008B01D42EDC0113967C936E931297FB01A1
:10267000878190E00E947F26D7011A969C938E93C3
:102680001997F801878190E00E947F26D7011C9658
:102690009C938E931B97D801ED91FC91E657FF4FC9
:1026A0000190F081E02D6EE773E0C8010995F70114
:1026B000D08619821A821B821C8282819381DC015E
:1026C000ED91FC9106A4F7A5E02D8E010F5F1F4F41
:1026D00020E835E240E050E06D2D099584E090E07F
:1026E000F70190AB87A70F900F900F900F90DF919D
:1026F000CF911F910F91FF90EF90DF9008950E946E
:10270000A4274F925F926F927F928F929F92AF9287
:10271000BF92CF92DF92EF92FF920F931F93CF93CE
:10272000DF93842F211124C0602F013208F060E272
:1027300041E00E9461011092F0038093F1030E9436
:1027400085072B013C0110E04701B12CA12C8091A1
:10275000F10380171106A4F0E6010C0D1D1D0C17E6
:102760001D0779F18FE595E00E94A9118993F7CFB4
:102770002130A1F4602F013208F060E240E0D9CFAF
:102780000E948507641975098609970986169706B8
:10279000A806B906E0F683E890E002C081E890E080
:1027A000DF91CF911F910F91FF90EF90DF90CF902D
:1027B000BF90AF909F908F907F906F905F904F9061
:1027C000089590E080E0ECCF0F931F9390E0FC0120
:1027D000ED50FF4F7491FC01E05EFE4FE4916111FA
:1027E000672FF0E0EE0FFF1FEB51FF4F85919491A3
:1027F00089019A013F70462F672F0E9409246115B5
:1028000071058105910529F06F5F7F4F8F4F9F4FB5
:102810009F701F910F910895AF92BF92CF92DF9258
:10282000EF92FF920F93CF93DF93C62FD22F4130B9
:10283000E1F561E08C2F0E94B20361E08C2F0E94D1
:10284000840361E070E080E090E00E94CD0660E0EB
:102850008C2F0E94840361E070E080E090E00E9491
:10286000CD0661E08C2F0E94840360E08D2F0E94D2
:10287000B203A701960160E0002319F0013049F48A
:1028800061E08D2F0E94E413F501608371838283E0
:10289000938390E080E0DF91CF910F91FF90EF90D4
:1028A000DF90CF90BF90AF9008954230F1F661E095
:1028B0008C2F0E94B20360E08C2F0E94840361E0A1
:1028C00070E080E090E00E94CD0661E08C2F0E94D5
:1028D000840361E070E080E090E00E94CD0660E05B
:1028E000C1CF2F923F924F925F926F927F928F92C1
:1028F0009F92AF92BF92CF92DF92EF92FF920F938F
:102900001F93CF93DF93CDB7DEB728970FB6F89418
:10291000DEBF0FBECDBF4C012DB63EB61E82DC0120
:1029200012968D919C91DC01ED91FC9102A8F3A986
:10293000E02DAE014A5F5F4FD40118966C91099566
:102940008E81823010F40C94D11E1D82F40182819C
:10295000938121853285DC01ED91FC9104A8F5A9D4
:10296000E02D8E010B5F1F4F42E0D40118966C9151
:102970000995D4011996ED91FC911A972081129630
:102980008D919C91DC01ED91FC9102A8F3A9E02DC1
:10299000AE014A5F5F4FD40118966C912F3F11F042
:1029A0000C94BC1E09952E81D4011996ED91FC91D1
:1029B00081818250990B281719060CF06FC005E62B
:1029C00010E0F40182819381DC01ED90FC90608540
:1029D0004E81A185B28511962C912250330B42175E
:1029E00013060CF05BC0D701D296ED91FC91AE01BD
:1029F0004A5F5F4F099501501109F401828193816B
:102A0000DC01ED91FC9101151105E9F502A8F3A98E
:102A1000E02DAE014A5F5F4FD40118966C91099585
:102A2000F4018281938121853285DC01ED91FC9155
:102A300004A8F5A9E02D8E010B5F1F4F4E81D40134
:102A400018966C9109958FEF9FEF0FB6F8943EBEE4
:102A50000FBE2DBE28960FB6F894DEBF0FBECDBFB9
:102A6000DF91CF911F910F91FF90EF90DF90CF906A
:102A7000BF90AF909F908F907F906F905F904F909E
:102A80003F902F900895E259FF4F0190F081E02D83
:102A900041E050E060E070E0099593CFF40182815D
:102AA00093810184F285E02D9F012E5F3F4F41818C
:102AB0004250DC01ED91FC9104A8F5A9E02D8E01B6
:102AC0000B5F1F4FD40118966C910995F401418555
:102AD0005285DA0111962C9130E0D9011197FA0153
:102AE00060E0CF01841B950B8A179B071CF4819132
:102AF000680FF7CFF40182819381FC01A081B1813D
:102B0000240F351FF9013197208126130C94B31E31
:102B1000AA56BF4FED91FC9161E00995D4011B9637
:102B20004D905C901C9719966D907C901A97F301CC
:102B3000448155815427452754274115FCEF5F07F1
:102B4000D8F0198292012B5F3F4FB3016A5F7F4F2C
:102B5000D30111968C91FA01FC5FEE0FFF1FE80D77
:102B6000F91D0584F685E02DAE014F5F5F4F87505C
:102B700009957C01298105C64432510509F4C4C573
:102B800008F04FC14231510509F418C308F086C05E
:102B90004A30510509F4E8C208F04CC045305105EF
:102BA00009F48AC260F44330510509F453C208F0B5
:102BB00064C2452B09F431C321E030E030C3483012
:102BC000510509F497C208F0C8C246305105A1F773
:102BD000F301208530E0322F2227032E000C440B16
:102BE000550B8185282B19821A821B821C82129612
:102BF0008D919C91DC01ED91FC9100A8F1A9E02D53
:102C00008E010F5F1F4FD40118966C9109957C01BE
:102C1000F40182819381DC01ED91FC91E259FF4F37
:102C20000190F081E02D48EE53E060E070E00995FE
:102C300097014EC7F401A281B3814E30510509F4CA
:102C4000A8C268F44C30510509F49CC208F493C240
:102C50009D962D913C919E979C960C9151C240312E
:102C6000510509F4A4C208F49BC2ED91FC9111979F
:102C7000E657FF4F0190F081E02D64E973E0CD014C
:102C8000099530E020E0A201B301C4010E94DF07F2
:102C900085E090E0F40190AB87A737C24A31510537
:102CA00009F4BDC308F05DC012968D919C91463128
:102CB000510509F41FC370F54431510509F4C3C22D
:102CC00008F4B3C28F5B9F4FFC018381D20115963C
:102CD0008C93D4011296ED91FC911397EF5BFF4F0B
:102CE0008281F20186831296ED91FC91EF5BFF4F9A
:102CF0008181D20117968C93D4011296ED91FC91AB
:102D0000EF5BFF4F8081F201808710E000E024E05C
:102D100030E0CCC14831510509F42AC308F419C385
:102D2000895B9F4FFC018381D20115968C93D4015E
:102D30001296ED91FC911397E95BFF4F8281F201AE
:102D400086831296ED91FC91E95BFF4F8181D20160
:102D500017968C93D4011296ED91FC91E95BFF4F8D
:102D6000D1CF4E31510509F4F5C350F5F4018281FC
:102D700093814C31510509F490C308F480C3835BFF
:102D80009F4FFC018081D20115968C931597169662
:102D900050E040E0F40182819381FC01E35BFF4F4E
:102DA000208130E0421753070CF0D1C3840F951FE8
:102DB000FC01E25BFF4F80818D934F5F5F4FEACF55
:102DC0004032510509F4EDC308F4DEC34232510527
:102DD00009F445C44332510509F0EECE1296ED9147
:102DE000FC911397E055FF4F8381F2018583129682
:102DF000ED91FC91E055FF4F8281D20116968C93A4
:102E0000D4011296ED91FC911397E055FF4F81810B
:102E1000F20187831296ED91FC91E055FF4F80817E
:102E200065C1413E510509F4EAC508F094C0443635
:102E3000510509F40DC508F051C04334510509F49A
:102E4000A2C488F44134510509F465C408F07AC479
:102E50004532510509F0B0CE1296ED91FC9125ADA9
:102E600036AD04AD4DC14036510509F4BDC44136FF
:102E7000510509F4D2C44434510509F09DCEF30143
:102E800062857385848595850E9464266B017C012B
:102E900012968D919C91DC01ED91FC910488F5894D
:102EA000E02D9E012F5F3F4F5901D30119960C91E0
:102EB000199716962C91169718964C911897179665
:102EC0006C9109957C0189819A812B813C81F20169
:102ED000358326839783808787013AC6423C510514
:102EE00009F42EC500F5403C510509F4EDC408F085
:102EF0000BC54338510509F05FCEF40182819381FF
:102F0000D30116966C91262F30E0295F3F4F260D96
:102F1000371DA301495F5F4FDC01ED91FC910688ED
:102F2000F789E02D0DC4443C510509F443C508F46C
:102F300029C5453C510509F452C5403E510509F0EB
:102F40003BCEF40182819381DC01ED91FC9104A0E0
:102F5000F5A1E02D4FC54730F1E05F0709F4FBC54F
:102F6000C0F5411531E0530709F4A2C5A0F4433E72
:102F7000510509F478C508F45BC5443E510509F0D4
:102F80001BCE12968D919C91DC01ED91FC9104A4D5
:102F9000F5A5E02D2FC5423091E0590709F4AFC5E2
:102FA00008F49CC54330514009F006CED401129676
:102FB0008D919C91DC01ED91FC91068CF78DE02DBB
:102FC000D30117964C91179716966C9109957C0131
:102FD00083CF4036E1E05E0709F460C610F5413466
:102FE00021E0520709F4EAC5423431E0530709F4FD
:102FF00045C64034514009F0DFCDF4018281938110
:10300000A3014A5F5F4FD30111966C916750DC01B9
:10301000ED91FC91E65AFF4F0190F081E02D09956A
:10302000E1C3423691E0590709F46FC608F44DC672
:103030004336B1E05B0709F489C64436514009F0D4
:10304000BBCDF40182819381DC01ED91FC91E859C3
:10305000FF4F84C61296ED91FC9113978281F20185
:1030600085831296ED91FC918381D20116968C9303
:1030700010E000E022E030E019C01296ED91FC91E2
:1030800013978085F20185831296ED91FC918185DD
:10309000D20116968C93D4011296ED91FC91828503
:1030A000F201878310E000E023E030E0A201B301E9
:1030B000C4010E94910729C01296ED91FC911397CB
:1030C00082A9F20185831296ED91FC9181A9D2012A
:1030D00016968C93D4011296ED91FC91139780A9CA
:1030E000F20187831296ED91FC9187A5D201189683
:1030F0008C930BCE1296ED91FC912485358503853A
:10310000A201B301C4010E94C307D40112968D919C
:103110009C9113971B964D915C91DC01ED91FC9174
:10312000EA56FF4F0190F081E02D60E00995F4012F
:1031300082819381A385B485FC0120813181F901CD
:1031400006A917A99D0111964C91D40118966C916E
:10315000F801099590E080E078CC1296ED91FC9111
:10316000278530890685CCCF1296ED91FC91238D71
:10317000348D028DC5CF97962D913C919897969658
:103180000C91BECF9A962D913C919B9799960C915C
:10319000B7CFD4962D913C91D597D3960C91B0CFC3
:1031A000D7962D913C91D897D6960C91A9CFDA96C7
:1031B0002D913C91DB97D9960C91A2CF1296ED916F
:1031C000FC91FF96D30116968D919C9198278927A3
:1031D000982791838083F40182819381DC01ED91B2
:1031E000FC91E059FF4F0190F081E02DD30116963C
:1031F0004C9170E060E00995F40182819381DC01DB
:10320000ED91FC91E059FF4F0190F081E02DD30149
:1032100017964C9161E070E0099530E020E0A20142
:10322000B301C4010E94DF0770CFCF96FC018181FA
:10323000D20115968C93D4011296ED91FC9187AD35
:10324000F201868315CF8F5B9F4FD30118964D9166
:103250005C91542745275427052E000C660B770BED
:10326000FC014083518362837383D40112968D9154
:103270009C91DC01ED91FC91E059FF4F0190F081B0
:10328000E02DD30116964C9162E070E00995F401AF
:1032900082819381DC01ED91FC91E059FF4F019017
:1032A000F081E02DD30117964C9163E070E0099511
:1032B000F40182819381DC01ED91FC91E059FF4F93
:1032C0000190F081E02DD30118964C9164E070E0FC
:1032D0000995F40182819381DC01ED91FC91E05923
:1032E000FF4F0190F081E02DD30119964C9165E0DC
:1032F00070E092CF8B5B9F4FD30116962D913C913E
:10330000322723273227FC0131832083D4011296F0
:103310008D919C91DC01ED91FC91E059FF4F019062
:10332000F081E02DD30116964C9166E070E009958E
:10333000F40182819381DC01ED91FC91E059FF4F12
:103340000190F081E02DD30117964C9167E070E079
:1033500063CF8B5B9F4FFC018181D20115968C93CB
:10336000D4011296ED91FC91EB5BFF4F808168CF09
:10337000895B9F4FD30118964D915C915427452747
:103380005427052E000C660B770BFC0140835183FC
:1033900062837383D40112968D919C91DC01ED912F
:1033A000FC91E059FF4F0190F081E02DD30116967A
:1033B0004C9168E070E00995F40182819381DC0111
:1033C000ED91FC91E059FF4F0190F081E02DD30188
:1033D00017964C9169E070E00995F4018281938120
:1033E000DC01ED91FC91E059FF4F0190F081E02D5F
:1033F000D30118964C916AE070E00995F40182813E
:103400009381DC01ED91FC91E059FF4F0190F08137
:10341000E02DD30119964C916BE070E0FDCE129631
:10342000ED91FC91E55BFF4FD30116968D919C9138
:1034300098278927982791838083F401828193813B
:10344000DC01ED91FC91E059FF4F0190F081E02DFE
:10345000D30116964C916CE070E00995F4018281DD
:103460009381DC01ED91FC91E059FF4F0190F081D7
:10347000E02DD30117964C916DE070E0CDCE855BC9
:103480009F4FFC018181D20115968C93D401129635
:10349000ED91FC91E55BFF4F69CFD30116962C911E
:1034A000FC01E35BFF4F213208F441C080E28083DE
:1034B000F40182819381DC01ED91FC91E059FF4F91
:1034C0000190F081E02D40E26EE070E0099573011B
:1034D00010E000E0F40182819381FFEFEF1AFF0A10
:1034E000FC01E35BFF4F20812017110609F00CF46B
:1034F00094CE800F911FFC01E25BFF4FD70116961F
:103500008C918083F40182819381B801615F7F4F48
:10351000DC01ED91FC91E059FF4F0190F081E02D2D
:10352000D70116964C9109950F5F1F4FD3CF20837B
:10353000F40182819381DC01ED91FC91E059FF4F10
:103540000190F081E02DD30116964C91BDCF10E093
:1035500000E0ACCD1296ED91FC91D30116968C91C2
:10356000E259FF4F8083F40182819381DC01ED9168
:10357000FC91E059FF4F0190F081E02DD3011696A8
:103580004C9160E370E048CE1296ED91FC91E259C7
:10359000FF4F8081F201858310E000E021E030E000
:1035A00085CDD30116968C91D4011296ED91FC91A4
:1035B0001397E159FF4F813408F441C080E48083C0
:1035C00012968D919C91DC01ED91FC91E059FF4F99
:1035D0000190F081E02D40E461E370E00995730112
:1035E00010E000E0F40182819381FFEFEF1AFF0AFF
:1035F000FC01E159FF4F20812017110609F00CF45E
:103600000CCE800F911FFC01E059FF4FD701169699
:103610008C918083F40182819381B8016E5C7F4F2D
:10362000DC01ED91FC91E059FF4F0190F081E02D1C
:10363000D70116964C9109950F5F1F4FD3CF80830A
:10364000F40182819381DC01ED91FC91E059FF4FFF
:103650000190F081E02DD30116964C91BDCFF3017E
:1036600066817781808591850E9464261296ED910E
:10367000FC911397E055FF4F60837183828393839E
:1036800012968D919C91DC01ED91FC91E059FF4FD8
:103690000190F081E02DD30116964C9162E770E025
:1036A0000995F40182819381DC01ED91FC91E0594F
:1036B000FF4F0190F081E02DD30117964C9163E705
:1036C00070E00995F40182819381DC01ED91FC9118
:1036D000E059FF4F0190F081E02DD30118964C91F5
:1036E00064E770E00995F40182819381DC01ED913A
:1036F000FC91E059FF4F0190F081E02DD301199624
:103700004C9165E770E088CD1296ED91FC91258192
:1037100036810481F5CCF40182819381D301169620
:103720006C91262F30E0295F3F4F260D371DA301F6
:10373000495F5F4FDC01ED91FC910284F385E02D40
:10374000099550C0F301118112968D919C919201BF
:103750002B5F3F4FA3014A5F5F4F69EF610FDC01B1
:10376000ED91FC910684F785E02D09957C01E12F10
:10377000E850FF0B9F0153E0359527955A95E1F7E7
:103780002F5F30E09FC012968D919C91F301E384EE
:103790004E2D50E070E060E0742F662755274427D7
:1037A0002685422B258530E0322F22277901330FE1
:1037B000000B110BE42AF52A062B172B218530E08C
:1037C000322F2227032E000C440B550B6285262B2B
:1037D000DC01ED91FC910288F389E02DD30116966E
:1037E0006C9109957C0124CAD30117966D917D9146
:1037F0008D919C911A970E9464269B01AC01F40163
:1038000082819381DC01ED91FC910084F185E02DB2
:10381000D30116966C910995E5CF1296ED91FC9126
:103820001397818DF20185831296ED91FC91808D25
:10383000D20116968C93D4011296ED91FC911397B8
:103840008789F20187831296ED91FC9186894ECC8F
:103850001296ED91FC9113978189F201858312965E
:103860008D919C91D30111966C916750DC01ED9183
:10387000FC910480F581E02D92012A5F3F4FA30166
:103880004A5F5F4F09957C01F30121812750330B7B
:10389000D4011296ED91FC914189429FC001439F52
:1038A000900D1124AC01E3E056954795EA95E1F7B8
:1038B000242F87709927892B11F021E0240F30E005
:1038C0002F5F3F4F870153C0F301218530E0322F36
:1038D0002227032E000C440B550B8285282B1982BE
:1038E0001A821B821C8212968D919C91DC01ED91B3
:1038F000FC9106A4F7A5E02D8E010F5F1F4FD301A9
:1039000016966C910995DECAD30119962C911997D8
:1039100030E0322F2227032E000C440B550B1A9651
:103920008C91282B19821A821B821C82F4018281BD
:103930009381DC01ED91FC9100A8F1A9E02DDCCF91
:1039400012968D919C91DC01ED91FC9102A8F3A956
:10395000E02DAE014F5F5F4FD30116966C91099534
:103960007C018981F2018583870121E030E0A20199
:10397000B301C4010E949107B4E0EB16F10409F011
:10398000C4CB86C9198212968D919C9192012B5FAE
:103990003F4FDC01ED91FC9104A8F5A9E02D8E01CB
:1039A0000F5F1F4FD30117964C91179716966C9186
:1039B0000995DFC8F401828193819301295F3F4F0C
:1039C000D30111964C914850DC01ED91FC9106A871
:1039D000F7A9E02DD30116966C91099503CFF40158
:1039E00082819381DC01ED91FC91E85AFF4F0190B7
:1039F000F081E02DD30116966C910995F3CEF30179
:103A0000218530E0322F2227032E000C440B550B6A
:103A10008285282B19821A821B821C8212968D9114
:103A20009C91DC01ED91FC9106A0F7A1E02D64CF03
:103A300012968D919C917301B9E0EB0EF11CF3018C
:103A400001810A50DC01ED91FC9100A4F1A5E02D6B
:103A5000D30118962C91189717964C911797169694
:103A60006C910995BFCEF401828193816201F5E0EA
:103A7000CF0ED11CD3011996ED90FC90FE24EF24BB
:103A8000FE24DC01ED91FC9102A4F3A5E02DD3010D
:103A900018960C9118971B962C911B9717964C9182
:103AA000179716966C9109957C01F301208569CED4
:103AB000F40182819381DC01ED91FC91028CF38D04
:103AC000E02DD30116966C9109957C0130E020E041
:103AD000A201B301C4010E94DF074ECFF40182812D
:103AE0009381DC01ED91FC91048CF58DE02DD301E7
:103AF00017964C91179716966C9109958ECBF301FA
:103B000067817085818592850E9464269B01AC0146
:103B100019821A821B821C8212968D919C91DC0163
:103B2000ED91FC9100A0F1A1E02D8E010F5F1F4FE0
:103B3000D30116966C9109957C0189819A812B811C
:103B40003C81F201358326839783808710E000E073
:103B500024E030E00CCF1296ED91FC91D301179642
:103B60004C915201B5E0AB0EB11C63012AE0C20ECC
:103B7000D11CD30111968C918B50990B642F70E05E
:103B80000E944A26262FA081B18192968D919C9108
:103B900098878F83D3011996EC90199718960C91FA
:103BA000189716966C91CF01EF81F88509957C01E5
:103BB000D30111962C912B50330B84CEADB6BEB6EB
:103BC000F301868190E09C01220F331F4DB75EB751
:103BD000421B530B0FB6F8945EBF0FBE4DBF0DB71F
:103BE0001EB70F5F1F4FFC013796E60DF71D7801DA
:103BF000D80130E020E02817390744F45081418192
:103C00004D935D932F5F3F4F3296F5CFD12CC12C52
:103C1000D30116966C91F40182819381DC012D9180
:103C20003C916C151D0499F094F0F701419151916C
:103C30007F0170E060E02C563F4FD901ED91FC917F
:103C40002AE030E00995BFEFCB1ADB0AE1CFA301F0
:103C5000495F5F4F245A3F4FD901ED91FC91980184
:103C600009957C019C01A201B301C4010E94DF07F8
:103C70000FB6F894BEBE0FBEADBE7ECEF4018281FB
:103C80009381A3014A5F5F4FD30111966C916750F6
:103C9000DC01ED91FC91E25AFF4FBEC9F401828133
:103CA0009381D30116966D917C91762767277627AD
:103CB000DC01ED91FC91E05AFF4F0190F081E02D85
:103CC000D30118964C9109958DCDF4018281938191
:103CD000D30116966D917C91762767277627DC01B4
:103CE000ED91FC91EE59FF4F0190F081E02DD30151
:103CF0001B96EC901B971A960C911A9719962C917B
:103D0000199718964C9109956DCDF4018281938194
:103D10009301255F3F4FD30118964D915C91199700
:103D200054274527542716966D917C91762767274F
:103D30007627DC01ED91FC91EC59FF4F0190F08169
:103D4000E02DD3011A960C9109954CCDF401828196
:103D50009381DC01ED91FC91EA59FF4F0190F081D4
:103D6000E02D09953FCDD296ED91FC91AE014A5FD1
:103D70005F4FD40118966C910995F401828193816B
:103D800021853285DC01ED91FC9104A8F5A9E02D97
:103D90008E010B5F1F4F4E81D40118966C910995CF
:103DA000D9C9D4019D96ED91FC91309709F4D2C9FF
:103DB00070E060E090E080E00995CCC9CB01642F11
:103DC0000C94D5250C941B270C941B270C941B27B3
:103DD0001F920F920FB60F9211248F939F93809191
:103DE000E1009091E100937F9093E10083FF0FC089
:103DF0001092E90091E09093EB001092EC0092E3B6
:103E00009093ED001092720498E09093F00082FF7E
:103E100022C093E09093E9009091F200992319F069
:103E20009AE39093E80090913B04992341F090919C
:103E30003B04915090933B04911101C05D98909187
:103E40007104992341F09091710491509093710401
:103E5000911101C0289884FF18C08091E2008E7EE5
:103E600081608093E2008091E1008F7E8093E10089
:103E700080913C048E7E806180933C049F918F9161
:103E80000F900FBE0F901F90189580FFF7CF809175
:103E9000E2008E7E80618093E2008091E1008E7E60
:103EA0008093E10080913C048E7E8160E5CF1F927B
:103EB0000F920FB60F921124CF92DF92EF92FF92E2
:103EC0000F931F932F933F934F935F936F937F9322
:103ED0008F939F93AF93BF93EF93FF93CF93DF9312
:103EE000CDB7DEB76C97DEBFCDBF1092E9008091F1
:103EF000E80083FF25C068E0CE0145960E94AA0233
:103F000082EF8093E8008D8987FF39C09091E800A7
:103F100090FFFCCF982F907609F034C19E894F898D
:103F2000588D2F89F88C911131C0803861F58091BE
:103F30003D048093F1001092F1008EEF8093E80031
:103F40006C960FB6F894DEBF0FBECDBFDF91CF9158
:103F5000FF91EF91BF91AF919F918F917F916F9161
:103F60005F914F913F912F911F910F91FF90EF9093
:103F7000DF90CF900F900FBE0F901F9018959EEF7F
:103F80009093E800C7CF1092F100D5CF913059F44B
:103F90008111D3CF4130510581F680913D048D7F51
:103FA00080933D04CACF933049F48111C6CF41308C
:103FB000510519F680913D048260F2CF953041F4AD
:103FC0008091E80080FFFCCF20682093E300B5CF0C
:103FD000963009F0A9C00B8D1C8D22E01092E900EB
:103FE0001092390410923804F2122EC01092370445
:103FF000109236040E9479021F8299E09983FA8216
:1040000091E09E8390EA98879AEF998720913804EF
:1040100030913904275F3F4F3C832B838D8310926F
:10402000E900109239041092380410933704009379
:10403000360449E050E0BE016F5F7F4F80E00E9490
:1040400053020E94790279CF10933704009336040B
:104050000E94DE01DC0112960D911C9101151105E3
:1040600009F451C1D801ED91FC910480F581E02D56
:10407000BE016B5E7F4FC8010995009709F03EC1F4
:10408000F80100851185EACFF3E0FF120EC08F8999
:10409000882309F440C0823061F440E86DE084EA8E
:1040A00091E00E942002811148CF81E28093EB00D1
:1040B00047CF813029F440E86BE088E991E0F1CF07
:1040C000833099F70E94DE01DC011296ED90FC909E
:1040D0008E010F5F1F4F6801E114F10479F0D701E1
:1040E000ED91FC910680F781E02DB801C70109959B
:1040F000080F111DF701E084F184EECFD8011C9266
:10410000F60101900020E9F73197BF016C197D0994
:1041100040E0C601C6CF62E871E0FB01449150E087
:1041200080E80E94530209CF973009F4BECF98303F
:1041300021F481E08093F10000CF993009F0FDCEA9
:10414000837009F0B2CFE3E7F1E081E031E096E37C
:104150002191222371F08093E9003093EB00DF017D
:1041600011972C912093EC009093ED008F5F873096
:1041700079F78EE78093EA001092EA008F898093A6
:104180007204DBCE8B8D9C8D1092E9001092390465
:10419000109238049093370480933604898D8111EE
:1041A00092C08E899D89913A49F4813209F07DCF80
:1041B00047E050E066E071E080E0B3CF913209F073
:1041C00074CF833269F48F89988DB0E0A0E080933A
:1041D000020190930301A0930401B0930501ADCEB9
:1041E000803269F48091E80082FFFCCF67E086E0CE
:1041F00091E00E94AA028BEF8093E8009ECE82326B
:1042000009F09BCE8F8980930D01EEEFFFE785913A
:1042100094918B3F9C4D51F1E0E0F8E080910601D4
:1042200090910701A0910801B0910901803B944051
:10423000A105B105F1F480910D0180FD1AC0EE3F9A
:104240008AE0F80789F587E797E791838083809173
:10425000600080933A0488E19BE00FB6F894A8953B
:10426000809360000FBE9093600067CEEEEFFAE09F
:10427000D5CF808191818737974709F05ECEA89589
:104280008091600088618093600080913A048093FF
:104290006000EE3F2AE0F20789F08091FE0A9091DB
:1042A000FF0A9183808349CE808191818737980767
:1042B00051F29093FF0A8093FE0AC5CF1092FF0A35
:1042C0001092FE0A3ACE0E94DE01DC0112960D9198
:1042D0001C910115110509F4E8CED801ED91FC916E
:1042E0000190F081E02DBE016B5E7F4FC801099502
:1042F000811123CEF80100851185EBCF1816190620
:104300000CF41BCED2CEF1E0FF12BECE66E871E017
:1043100004CF1F920F920FB60F9211248F939F9389
:10432000AF93BF93EF93FF93809132049091330446
:10433000A0913404B0913504892B8A2B8B2BA1F1E9
:1043400090913104E0912F04F0913004808189270D
:1043500080838091320490913304A0913404B09111
:104360003504181619061A061B069CF480913204AF
:1043700090913304A0913404B09135040197A109C0
:10438000B1098093320490933304A0933404B09322
:104390003504FF91EF91BF91AF919F918F910F9055
:1043A0000FBE0F901F901895809171008D7F8093A4
:1043B000710080913104E0912F04F09130049081DC
:1043C000809589238083E5CF1F920F920FB60F92BD
:1043D00011242F933F938F939F93AF93BF9380911B
:1043E000180490911904A0911A04B0911B04309103
:1043F000170423E0230F2D3758F50196A11DB11D99
:10440000209317048093180490931904A0931A041E
:10441000B0931B0480911C0490911D04A0911E0474
:10442000B0911F040196A11DB11D80931C049093AF
:104430001D04A0931E04B0931F04BF91AF919F91E0
:104440008F913F912F910F900FBE0F901F90189555
:1044500026E8230F0296A11DB11DD2CF1F920F9205
:104460000FB60F9211242F933F934F935F936F9347
:104470007F938F939F93AF93BF93CF93DF93EF93EC
:10448000FF938091EA03C091F203D0E087FF24C03C
:1044900010928500109284008091EA038F5F8093D0
:1044A000EA038091EA03082E000C990B8C179D07F4
:1044B00024F48091EA038C30C4F1809184009091BF
:1044C0008500049680349C4908F47AC08091840069
:1044D00090918500049676C08091EA03082E000C26
:1044E000990B8C179D07C4F6E091EA038E2FEE0F0F
:1044F000990BFC01EE0FFF1FE80FF91FED50FC4F69
:10450000808186FFC9CFE091EA038E2FEE0F990BD1
:10451000FC01EE0FFF1FE80FF91FED50FC4F8081EB
:1045200060E08F730E948403B7CF209184003091A4
:104530008500E091EA038E2FEE0F990BFC01EE0F40
:10454000FF1FE80FF91FED50FC4F81819281820F10
:10455000931F9093890080938800E091EA038E2F47
:10456000EE0F990BFC01EE0FFF1FE80FF91FED5046
:10457000FC4F808186FF11C0E091EA038E2FEE0F81
:10458000990BFC01EE0FFF1FE80FF91FED50FC4FD8
:10459000808161E08F730E948403FF91EF91DF912E
:1045A000CF91BF91AF919F918F917F916F915F91CB
:1045B0004F913F912F910F900FBE0F901F90189524
:1045C00080E49CE990938900809388008FEF80932A
:1045D000EA03E3CF1F920F920FB60F9211242F938D
:1045E0003F934F935F936F937F938F939F93AF937B
:1045F000BF93EF93FF938091B900887F803609F4D1
:104600004AC0F0F5883209F4A7C018F5803109F4E2
:104610009BC0B8F4882309F4F9C0883009F494C029
:10462000FF91EF91BF91AF919F918F917F916F918A
:104630005F914F913F912F910F900FBE0F901F9060
:104640001895883109F488C0803251F78093B704F7
:1046500014C0803409F49DC040F48033B9F388332A
:10466000F9F68093B70485ECB0C0803509F485C0B5
:10467000883509F496C0883499F60E946911D0CF24
:10468000883909F48CC038F5883729F050F4883619
:1046900011F0803729F683E08093B9041092E90382
:1046A00057C0883809F47BC0803919F0803809F088
:1046B000B7CF8091E903803208F071C0E091E9033F
:1046C00081E08E0F8093E9038091BB00F0E0E75317
:1046D000FC4F80833DC0803B39F0E0F4803A09F420
:1046E00079C0883A09F09CCF84E08093B904109295
:1046F000C8031092C703E091EE03F091EF03099510
:104700008091C70381110FC081E08093C70310928D
:10471000A70309C0803C09F4A6CF883C09F4A3CFC5
:10472000883B09F07DCFE091C80381E08E0F809334
:10473000C803F0E0E955FC4F80818093BB00909165
:10474000C8038091C70329C0809194048093BB0063
:1047500085EC8093BC0064CF9091B6048091B50441
:10476000981758F5E091B60481E08E0F8093B60457
:10477000F0E0EB56FB4F8081E9CFE091B60481E099
:104780008E0F8093B6048091BB00F0E0EB56FB4F98
:1047900080839091B6048091B5049817C8F285E89B
:1047A000D8CFE091B60481E08E0F8093B60480915B
:1047B000BB00F0E0EB56FB4F80838091B804811181
:1047C0005CCF81E08093930484EA8093BC001092D4
:1047D000B90426CF85EC8093BC001092B904809177
:1047E000E903803230F4E091E903F0E0E753FC4F55
:1047F00010826091E90370E0E091EC03F091ED0329
:1048000089EC93E009951092E9030ACF1092B7045E
:1048100034CFCF92DF92EF92FF920F931F93E82F46
:10482000F92F05C0015011092109310961F1908169
:1048300096239417B9F305C00150110921093109D4
:1048400011F1908196239413F7CFC12CD12CE12C38
:10485000F12C0AC08FEFC81AD80AE80AF80A0C151A
:104860001D052E053F0579F080818623841791F37D
:104870006C2D7D2D8E2D9F2D1F910F91FF90EF9010
:10488000DF90CF90089560E070E080E090E01F91AD
:104890000F91FF90EF90DF90CF900895EEEDF4E050
:1048A0001382128288EE93E0A0E0B0E084839583C7
:1048B000A683B78322EF32E0318320832FEF3FEFCF
:1048C00035872487EEE2F5E01582148224E033E098
:1048D0003183208310AA17A617821682EFE5F5E030
:1048E0001382128284839583A683B7838AE193E03F
:1048F000918380830895789484B5826084BD84B563
:10490000816084BD85B5826085BD85B5816085BDCA
:1049100080916E00816080936E0010928100809182
:10492000810082608093810080918100816080930A
:10493000810080918000816080938000809191004F
:1049400082608093910080919100816080939100BA
:10495000809190008160809390008091C10084607C
:104960008093C1008091C10082608093C1008091DA
:10497000C10081608093C1008091C30081608093F9
:10498000C3008091C00082608093C0008091C2000B
:1049900081608093C20080917A00846080937A0065
:1049A00080917A00826080937A0080917A008160A1
:1049B00080937A0080917A00806880937A001092C8
:1049C000720410923D0410923C048091D7008160E3
:1049D0008093D70080EA8093D80089B5806189BD33
:1049E00089B5826089BD09B400FEFDCF61E070E049
:1049F00080E090E00E94CD068091D8008F7C80619D
:104A00008093D8008091E000807F8093E0008091C7
:104A1000E1008E7E8093E1000DE00093E200559A64
:104A2000209A5D9828988DEC90E00E947F26EC01FA
:104A30008EEF8A831B8280E88F838DE791E09983D4
:104A4000888383E0888719861A8690E080E00E9438
:104A5000CD25182F81E090E00E94CD25FE01FF9624
:104A6000912F9183808382E08A8384E592E0998309
:104A7000888389E08B8392E19C832EE332E03E833E
:104A80002D839B872CE232E03D872C878E8743E283
:104A900052E0588B4F878AE0898B40E45BE46CE4FA
:104AA00070E04E8B5F8B688F798F4A8B5B8B6C8B42
:104AB0007D8BE858FF4FA1E2B2E0B183A08333972A
:104AC00081E080833196ADE1B2E0B183A08334967A
:104AD0001082118212821382349640835183628342
:104AE00073831A8E1C8E1B8E45E04EA348E152E064
:104AF00058A74FA319A61BA61AA68CA744E654E0F4
:104B00005EA74DA7409168015091690160916A01CB
:104B100070916B014FA758AB69AB7AAB34960083A9
:104B2000319648E351E0518340838BAB43E654E038
:104B30005DAB4CAB379642E654E0518340838EAB7D
:104B400047E152E058AF4FAB359787E0808331960D
:104B50004CE151E05183408332964EE051E0518365
:104B6000408319AE1BAE1AAE9CAF3EAF2DAF34964C
:104B70008EE394E09183808340E0BE018EE295E075
:104B80000E942413C0E0D0E08EE295E00E941B0852
:104B90002097D1F30E940000F7CFF999FECF92BD84
:104BA00081BDF89A992780B50895262FF999FECFEF
:104BB0001FBA92BD81BD20BD0FB6F894FA9AF99A3A
:104BC0000FBE01960895052E97FB1EF400940E94D7
:104BD000FA2557FD07D00E940D2607FC03D04EF49E
:104BE0000C94FA2550954095309521953F4F4F4FA5
:104BF0005F4F089590958095709561957F4F8F4F89
:104C00009F4F08950E942F26A59F900DB49F900D51
:104C1000A49F800D911D11240895A1E21A2EAA1BB4
:104C2000BB1BFD010DC0AA1FBB1FEE1FFF1FA2175C
:104C3000B307E407F50720F0A21BB30BE40BF50B59
:104C4000661F771F881F991F1A9469F760957095E2
:104C5000809590959B01AC01BD01CF010895A29F65
:104C6000B001B39FC001A39F700D811D1124911D40
:104C7000B29F700D811D1124911D0895991B79E03B
:104C800004C0991F961708F0961B881F7A95C9F7DC
:104C90008095089597FB072E16F4009407D077FDB2
:104CA00009D00E946B2607FC05D03EF490958195B3
:104CB0009F4F0895709561957F4F0895EE0FFF1FE8
:104CC0000590F491E02D09946927962769277827A4
:104CD000872778270895AA1BBB1B51E107C0AA1F8D
:104CE000BB1FA617B70710F0A61BB70B881F991F8D
:104CF0005A95A9F780959095BC01CD0108950F9321
:104D00001F93CF93DF938230910510F482E090E0FF
:104D1000E0916D05F0916E0530E020E0B0E0A0E09C
:104D2000309799F42115310509F44AC0281B390B35
:104D300024303105D8F58A819B816115710589F18F
:104D4000FB0193838283FE0111C040815181028166
:104D5000138148175907E0F04817590799F410973D
:104D600061F012960C93129713961C933296CF0112
:104D7000DF91CF911F910F91089500936D051093CE
:104D80006E05F4CF2115310551F04217530738F065
:104D9000A901DB019A01BD01DF01F801C1CFEF01DB
:104DA000F9CF90936E0580936D05CDCFFE01E20F94
:104DB000F31F819391932250310939832883D7CFF0
:104DC00020916B0530916C05232B41F420916E01ED
:104DD00030916F0130936C0520936B0520916C012D
:104DE00030916D012115310541F42DB73EB7409149
:104DF000700150917101241B350BE0916B05F0910E
:104E00006C05E217F307A0F42E1B3F0B2817390798
:104E100078F0AC014E5F5F4F2417350748F04E0F16
:104E20005F1F50936C0540936B05819391939FCFC7
:104E3000F0E0E0E09CCFCF93DF930097E9F0FC0136
:104E4000329713821282A0916D05B0916E05ED012B
:104E500030E020E01097A1F420813181820F931F70
:104E600020916B0530916C052817390709F061C056
:104E7000F0936C05E0936B05DF91CF910895EA0103
:104E8000CE17DF07E8F54A815B819E014115510588
:104E9000B1F7E901FB83EA8349915991C40FD51F0A
:104EA000EC17FD0761F4808191810296840F951FB4
:104EB000E90199838883828193819B838A83F0E0CF
:104EC000E0E012968D919C9113970097B9F52D9182
:104ED0003C911197CD010296820F931F20916B0593
:104EE00030916C052817390739F6309751F5109233
:104EF0006E0510926D05B0936C05A0936B05BCCF49
:104F0000D383C28340815181840F951FC817D9076D
:104F100061F44E5F5F4F88819981480F591F51831B
:104F200040838A819B81938382832115310509F017
:104F3000B0CFF0936E05E0936D059ECFFD01DC01CF
:104F4000C0CF13821282D7CF81E090E0F8940C9406
:064F5000A927F894FFCF31
:104F560001FFFFFFFFFF00E100000000000004006A
:104F660000000500010006000200030000127A009E
:104F760000093D0080841E0040420F0020A107006A
:104F860090D0030048E801002C0100005802000000
:104F9600B004000060090000C01200008025000077
:104FA60040380000004B000080700000127A0000BC
:104FB6000096000000E1000000C2010000006F053D
:104FC600800000C18081000000000000006611E63C
:104FD6001ECC0D2E114D0D110D2E11A50C2E1146A8
:104FE6000C0C14770B2E113F0B350BE80E6E0ED5FD
:104FF6000A920A8D0AE9118113830A1F0AF609E744
:105006000986097B09F610FD101911E910DD10AAB1
:10501600109D107A1062104A1032101A100210E811
:105026000FCE0FB00F78094812B1088508AD0FAA48
:105036000FA70FA40FA40F590E4E0E5B0EDE1E45D2
:10504600123211A20FA10FA00F9F0FA30F9E0F9D4B
:105056000F9C0F7709A20FA10FA00F9F0F9E0F9D08
:105066000F9C0F3111FC0E00030506090AE0C8105B
:1050760000030000010203060708090A00010203F3
:105086000405060708090A0E0F10121314154172BB
:105096006475696E6F2050726F204D6963726F0080
:1050A600000000006811E41ECC0D2E114D0D110DEF
:1050B6002E11A50C2E11460C0C14770B2E113F0B3E
:1050C600350BE80E6E0ED50A920A8D0AE911811388
:1050D600830A1F0AF609E70986097B09F610FD10FF
:1050E6001911E910DD10AA109D107A1062104A10ED
:1050F60032101A100210E80FCE0FB00F78094812BE
:10510600B1088508AD0FAA0FA70FA40FA40F590E5B
:105116004E0E5B0EDE1E45123211A20FA10FA00F1E
:105126009F0FA30F9E0F9D0F9C0F7709A20FA10F34
:10513600A00F9F0F9E0F9D0F9C0F3111FC0E0000BC
:105146000000B7020007D802CD021E03DC02FA02F5
:1051560000000000180818081808180871146F08CD
:1051660018081B082413000000001312BC11421279
:105176007709860AA9119A115374617465202D2046
:10518600436C6F7365005374617465202D204578F8
:10519600697400536572766F2000203A20004465DA
:1051A60062756767696E6720456E61626C6564004B
:1051B60043726561746564204E6577205365727627
:1051C6006F204F6E204368616E6E656C20005374CD
:1051D600617274696E67204C697374656E65722EB0
:1051E6002E2E0A00436C6F736520436F6D6D616EE2
:0251F600640053
:00000001FF
