:100000000C9465000C948D000C948D000C948D0064
:100010000C948D000C948D000C948D000C9407248E
:100020000C948D000C948D000C948D000C9459044C
:100030000C948D000C948D000C948D000C948D000C
:100040000C94F61C0C948D000C94A5200C94D720D5
:100050000C948D000C948D000C948D000C948D00EC
:100060000C942C030C948D00000000080002010089
:100070000003040700000000000000000102040863
:100080001020408001020408102001020408102002
:10009000040404040404040402020202020203032E
:1000A00003030303000000002300260029000000D2
:1000B0000000250028002B0000000000240027007D
:1000C0002A00020042024312072111241FBECFEF73
:1000D000D8E0DEBFCDBF14E0A0E0B1E0E6EAFCE48A
:1000E00002C005900D92A233B107D9F726E0A2E332
:1000F000B4E001C01D92AA32B207E1F710E0CAECE9
:10010000D0E004C02297FE010E94FC24C43CD10729
:10011000C9F70E9466240C9451260C940000CF92DB
:10012000DF92EF92FF920F931F93E82FF92F05C0F4
:10013000015011092109310961F190819623941729
:10014000B9F305C0015011092109310911F190815C
:1001500096239413F7CFC12CD12CE12CF12C0AC09B
:100160008FEFC81AD80AE80AF80A0C151D052E05E3
:100170003F0579F080818623841791F36C2D7D2DC6
:100180008E2D9F2D1F910F91FF90EF90DF90CF90BC
:10019000089560E070E080E090E01F910F91FF9083
:1001A000EF90DF90CF900895CF93DF938DEC90E0A8
:1001B0000E947524EC010E941806D0933304C0936A
:1001C000320440E0BE018AE395E0DF91CF910C94C8
:1001D0006F108AE395E00C942010CF93CFB7F8947A
:1001E00080913404811127C0EAE9F0E08491E6E8C7
:1001F000F0E09491E82FF0E0EE0FFF1FE854FF4F7E
:10020000A591B4918C91892321F461E08AE00E9448
:10021000B31E61E08AE00E947A1E8CB580618CBDBD
:100220008CB580648CBD61E08DE00E947A1E61E037
:100230008BE00E947A1E809134048F5F8093340497
:10024000CFBFCF9108958091650490E0209166041E
:10025000821B9109089520916604809165042817F6
:1002600050F4E22FF0E0E959FB4F808190E02F5FDE
:100270002093660408958FEF9FEF0895E091660440
:1002800080916504E81730F4F0E0E959FB4F808174
:1002900090E008958FEF9FEF08950895CF92DF9239
:1002A000EF92FF920F931F93CF93DF937C01CB01CB
:1002B0008A0120914104222389F0EB016B01C40ED5
:1002C000D51ECC15DD0569F06991D701ED91FC9142
:1002D0000190F081E02DC7010995F3CF642F0E94B2
:1002E0000303C801DF91CF911F910F91FF90EF9011
:1002F000DF90CF900895CF93DF931F92CDB7DEB7F5
:100300006983209141042223D1F0209142042032BC
:1003100040F021E030E0FC013383228380E090E074
:1003200015C080914304E82FF0E0EC5BFB4F99810E
:1003300090838F5F809343048093420405C061E003
:10034000CE0101960E94030381E090E00F90DF91BF
:10035000CF910895FC011382128248EE53E060E0D1
:1003600070E044835583668377838EE691E09183C2
:1003700080830895109266041092650410924304DD
:10038000109242040C94460281E0809341046093F1
:100390006404109243041092420408950F93062FB0
:1003A00021E04091420464E474E0809164040E947E
:1003B000AC021092430410924204109241040F9137
:1003C00008958F929F92AF92BF92CF92DF92EF9259
:1003D000FF920F931F93CF93DF93EC01F62ED42E51
:1003E00048015901EE2019F10E94C4011E2D14305C
:1003F00008F013E01150B8F0E881F98128E0129F6D
:10040000B0011124A501940104C056954795379574
:1004100027956A95D2F7CA01B9010190F081E02DC4
:10042000CE010995E7CF60E0CE010E94CE014D2DAF
:10043000413208F040E22C2D67E674E08F2D0E94D7
:1004400064021092660480936504DF91CF911F913E
:100450000F91FF90EF90DF90CF90BF90AF909F9063
:100460008F900895CF92EF920F931F93C22EE12C9D
:1004700000E010E098010E94E1011F910F91EF90C0
:10048000CF90089585E394E00C94AA011092F404AF
:1004900081E08093F2041092F10461E082E10E9415
:1004A000B31E61E083E10E94B31EE9EBF0E08081BE
:1004B0008E7F808380818D7F808388E48093B800E5
:1004C00085E48093BC000895413208F043C09091C8
:1004D000F4049111FCCF91E09093F4042093F20482
:1004E0002FEF209387041092CC04240F2093CB0489
:1004F0009093F3049091F304880F892B8093F30475
:100500008091F104813061F41092F1048091F30440
:100510008093BB008091BC0083FDF8CF85EC01C0C7
:1005200085EE8093BC008091F4048130E1F38091EA
:10053000CC04841710F44091CC042DEC34E0FB0182
:10054000D9018A2F821B841718F48D918193F9CFDA
:10055000842F089580E008950F93413208F04AC037
:100560009091F4049111FCCF92E09093F4040093E5
:10057000F2049FEF909387041092CC044093CB0435
:10058000FB016DEC74E0DB019A2F961B941718F4B5
:1005900091919D93F9CF1092F3049091F304880FF9
:1005A000892B8093F3048091F104813061F41092DF
:1005B000F1048091F3048093BB008091BC0083FD23
:1005C000F8CF85EC01C085EE8093BC00222321F09A
:1005D0008091F4048230E1F3809187048F3F61F0D1
:1005E00080918704803251F080918704803341F4F8
:1005F00083E007C081E005C080E003C082E001C065
:1006000084E00F910895613298F42091F40424302D
:1006100089F46093A904FC018BEA94E0DC012A2FA1
:10062000281B261718F421912D93F9CF80E0089507
:1006300081E0089582E0089585ED8093BC0080916B
:10064000BC0084FDFCCF1092F404089585EC8093E7
:10065000BC001092F40408951F920F920FB60F92EF
:1006600011242F933F934F935F936F937F938F93B7
:100670009F93AF93BF93EF93FF938091B900887FCF
:10068000803609F49EC078F5883209F45DC090F494
:10069000803109F456C038F4882309F4F5C0883055
:1006A00009F44FC0F5C0883109F44EC0803209F416
:1006B0005FC0EEC0803409F46AC058F4803309F496
:1006C00057C0883309F0E4C0809387040E94260352
:1006D000DFC0803509F44FC0883509F45DC0883427
:1006E00009F0D6C0D3C0883909F4C4C0A8F488374B
:1006F00009F467C038F4883609F463C0803709F418
:1007000060C0C6C0883809F4B5C0803909F45FC03C
:10071000803809F0BDC05BC0803B09F483C038F469
:10072000803A09F466C0883A09F47CC0B1C0803CC4
:1007300009F4A4C0883C09F4A1C0883B09F487C02F
:10074000A7C08091F30410C09091CC048091CB0499
:10075000981770F5E091CC0481E08E0F8093CC0463
:10076000F0E0E353FB4F80818093BB0085EC83C0B6
:10077000809387048BC0E091CC0481E08E0F80933E
:10078000CC048091BB00F0E0E353FB4F8083909159
:10079000CC048091CB046BC0E091CC0481E08E0F3F
:1007A0008093CC048091BB00F0E0E353FB4F808347
:1007B0008091F20481116AC081E08093F10484EA9F
:1007C0005EC083E08093F40410928804CFCF8091C0
:1007D0008804803208F04EC0E091880481E08E0FDA
:1007E000809388048091BB00F0E0E757FB4F808343
:1007F000BDCF0E94260380918804803230F4E091BE
:100800008804F0E0E757FB4F10826091880470E0A5
:10081000E091ED04F091EE0489E894E009951092DE
:10082000880436C084E08093F4041092AA041092E5
:10083000A904E091EF04F091F00409958091A904D6
:10084000811105C081E08093A9041092AB04E0916E
:10085000AA0481E08E0F8093AA04F0E0E555FB4FD7
:1008600080818093BB009091AA048091A90498177D
:1008700008F47CCF85E88093BC000AC085EC8093A7
:10088000BC001092F40404C0109287040E941C0360
:10089000FF91EF91BF91AF919F918F917F916F9158
:1008A0005F914F913F912F910F900FBE0F901F902E
:1008B00018951F920F920FB60F9211242F933F930A
:1008C0004F935F936F937F938F939F93AF93BF9358
:1008D000EF93FF938091F60487FF05C01092850087
:1008E000109284001AC02091F604332727FD30951A
:1008F0008091F50490E0281739077CF48091F60484
:10090000992787FD9095FC01EE0FFF1FE80FF91F57
:10091000E950FB4F808186FD15C08091F6048F5F02
:100920008093F6042091F604332727FD30958091BB
:10093000F50490E028173907BCF48091F6048C3058
:100940005CF112C08091F604992787FD9095FC0117
:10095000EE0FFF1FE80FF91FE950FB4F808160E0A9
:100960008F730E94B31ED9CF80918400909185002F
:10097000049680349C4918F480E49CE905C0809179
:10098000840090918500049690938900809388005C
:100990008FEF8093F60438C0209184003091850059
:1009A0008091F604992787FD9095FC01EE0FFF1FBB
:1009B000E80FF91FE950FB4F81819281820F931F4D
:1009C00090938900809388008091F604992787FD91
:1009D0009095FC01EE0FFF1FE80FF91FE950FB4F48
:1009E000808186FF11C08091F604992787FD90953C
:1009F000FC01EE0FFF1FE80FF91FE950FB4F80814C
:100A000061E08F730E94B31EFF91EF91BF91AF9190
:100A10009F918F917F916F915F914F913F912F9116
:100A20000F900FBE0F901F9018952091F5042C3059
:100A3000A0F431E0320F3093F504FC012083822FC3
:100A400090E0FC01EE0FFF1FE80FF91FE950FB4F8C
:100A500088EB9BE09283818308952FEFFC01208334
:100A60000895DF92EF92FF920F931F93CF93DF933E
:100A7000EC01D62E7A01890188818C3008F066C09D
:100A800061E08D2D0E947A1E8881A82FB0E0FD01C3
:100A9000EE0FFF1FEA0FFB1FE950FB4F2D2D2F73A9
:100AA0009081907C922B908360E272E06E197F09B6
:100AB00077FF02C06D5F7F4F759567957595679558
:100AC000698340E659E0401B510B57FF02C04D5F60
:100AD0005F4F55954795559547954A836CE00E9421
:100AE0007A249CE0899FB001112420E030E0A90124
:100AF000460F571FFA01EE0FFF1FE40FF51FE950D5
:100B0000FB4F908196FD16C02F5F3F4F2C30310573
:100B100071F781110FC01092800082E080938100F4
:100B20001092850010928400B19A80916F008260CB
:100B300080936F00888190E0FC01EE0FFF1FE80FAB
:100B4000F91FE950FB4F8081806480838881DF91A9
:100B5000CF911F910F91FF90EF90DF90089520E6C5
:100B600039E040E252E00C943105FC01808190E0D4
:100B7000FC01EE0FFF1FE80FF91FE950FB4F8081CA
:100B80008F7B80830895FC0180818C3070F591818A
:100B900028E830E0291B310997FD3395220F331FD8
:100BA000220F331F621773077CF0928128E532E031
:100BB000291B310997FD3395220F331F220F331F55
:100BC000621773070CF49B0122503109220F331F67
:100BD0004FB7F89490E0FC01EE0FFF1FE80FF91FEC
:100BE000E950FB4F328321834FBF08952FE133E05B
:100BF000FC01318320830C94B2062EE731E0FC0126
:100C0000318320830C94F605CF93DF93EC010E948F
:100C1000F605CE01DF91CF910C947724CF93DF932B
:100C2000EC010E94FD05CE01DF91CF910C94772459
:100C30001F93CF93DF93EC010E94460F8EE791E064
:100C40009983888385E08A831B8289E08C8389E38A
:100C500092E09E838D8383E0888719861A86AEE0B2
:100C6000AB878FE192E09D878C8716E01E8723E398
:100C700032E0388B2F872AE0298B40E45BE46CE478
:100C800070E04E8B5F8B688F798F4A8B5B8B6C8BA0
:100C90007D8BFE01E954FF4F2DE232E0318320834A
:100CA0003397B1E0B08331962FE232E03183208375
:100CB00034961082118212821382349640835183BB
:100CC000628373831A8E1C8E1B8E1EA329E132E071
:100CD00038A72FA319A61BA61AA6BCA727E335E0A1
:100CE0003EA72DA740913A0150913B0160913C01F4
:100CF00070913D014FA758AB69AB7AAB34962DE0AC
:100D0000208331962AE031E031832083BBAB29E395
:100D100035E03DAB2CAB379628E335E031832083BB
:100D2000BEAB28E132E038AF2FAB359727E0208308
:100D300031962CE431E03183208332962EE331E08A
:100D40003183208319AE1BAE1AAEACAF9EAF8DAF10
:100D5000C553DF4F8BE195E099838883DF91CF9175
:100D60001F91089528E532E0FC0131832083089526
:100D7000EF92FF920F931F93CF93DF9300D000D099
:100D8000CDB7DEB77C0119821A821B821C82DC017E
:100D9000ED91FC9106A4F7A5E02D8E010F5F1F4F8A
:100DA00020E032EC41E050E00995D701ED91FC9153
:100DB000E657FF4F0190F081E02D62E472E0C70139
:100DC00009950F900F900F900F90DF91CF911F9189
:100DD0000F91FF90EF9008950895089581E090E0BD
:100DE000089581E090E0089581E090E0089581E029
:100DF00090E00895CF93DF931F92CDB7DEB749837C
:100E0000DC01ED91FC9106A8F7A9E02D9E012F5F72
:100E10003F4F41E009950F90DF91CF910895FF92E8
:100E20000F931F93CF93DF93EC01F62E8A01F80105
:100E300041918F01442349F0E881F98100ACF1AD83
:100E4000E02D6F2DCE010995F2CFDF91CF911F914B
:100E50000F91FF900895DC01ED91FC9104ACF5AD8C
:100E6000E02D0994DC01ED91FC91EE5BFF4F9A01BE
:100E7000442737FD4095542F0190F081E02D0994CF
:100E8000DC01ED91FC91EC5BFF4F9A0140E050E0FA
:100E90000190F081E02D0994CF92DF92EF92FF92C2
:100EA0000F931F93CF93DF93EC01162F69017A0103
:100EB00057FF0FC0E881F98100ACF1ADE02D4DE2A4
:100EC0000995F094E094D094C094C11CD11CE11C0D
:100ED000F11CE881F981E856FF4F0190F081E02D87
:100EE0000AE0A7019601612FCE010995DF91CF910C
:100EF0001F910F91FF90EF90DF90CF9008950F9387
:100F0000DC01ED91FC91E856FF4F0190F081E02D5E
:100F10000AE009950F9108951F93CF93DF93EC0199
:100F2000162FE881F98100ACF1ADE02D4DE0099577
:100F3000E881F98100ACF1ADE02D4AE0612FCE01EE
:100F4000DF91CF911F9109941F93CF93DF93EC0111
:100F5000162FE881F98100ACF1ADE02D0995E8810B
:100F6000F981E85BFF4F0190F081E02D612FCE0108
:100F7000DF91CF911F9109941F93CF93DF93EC01E1
:100F8000162FE881F98102ACF3ADE02D0995E881D7
:100F9000F981E85BFF4F0190F081E02D612FCE01D8
:100FA000DF91CF911F9109941F93CF93DF93EC01B1
:100FB000162FE881F98104ACF5ADE02D0995E881A3
:100FC000F981E85BFF4F0190F081E02D612FCE01A8
:100FD000DF91CF911F9109941F93CF93DF93EC0181
:100FE000162FE881F98106ACF7ADE02D0995E8816F
:100FF000F981E85BFF4F0190F081E02D612FCE0178
:10100000DF91CF911F9109941F93CF93DF93EC0150
:10101000162FE881F981EE5BFF4F0190F081E02D02
:101020000995E881F981E85BFF4F0190F081E02D9F
:10103000612FCE01DF91CF911F9109941F93CF9320
:10104000DF93EC01162FE881F981EC5BFF4F0190F3
:10105000F081E02D0995E881F981E85BFF4F01906F
:10106000F081E02D612FCE01DF91CF911F91099486
:10107000FF920F931F93CF93DF93EC01F62EE8813D
:10108000F981EA5BFF4F0190F081E02D0995E8813D
:10109000F981E85BFF4F0190F081E02D6F2DCE01CB
:1010A000DF91CF911F910F91FF90099481E090E023
:1010B000089581E090E0089581E090E0089581E056
:1010C00090E0089581E090E00895089508950895CE
:1010D0000895089508950895089508950895089528
:1010E0000895089508950895089528E532E0FC01D3
:1010F000318320830C9477240F931F93DC01ED91AF
:10110000FC910115110539F400ACF1ADE02D422F31
:101110001F910F9109940A30110541F4EE5BFF4FC6
:101120000190F081E02D1F910F910994E856FF4F37
:101130000190F081E02D09951F910F9108952F9254
:101140003F924F925F926F927F928F929F92AF9257
:10115000BF92CF92DF92EF92FF920F931F93CF93A4
:10116000DF93CDB7DEB7A0970FB6F894DEBF0FBE02
:10117000CDBF5C01162FCA01B9012115310541050A
:10118000510511F5D501ED91FC9100ACF1ADE02DCB
:1011900040E3612FC501A0960FB6F894DEBF0FBEE5
:1011A000CDBFDF91CF911F910F91FF90EF90DF9016
:1011B000CF90BF90AF909F908F907F906F905F90F7
:1011C0004F903F902F900994FE0131964F01C12C12
:1011D000D12C76013F01202E312C412C512CFFEFD8
:1011E000CF1ADF0AEF0AFF0AA20191010E949A2496
:1011F000D4016D934D01B901CA01611571058105D5
:10120000910569F7B1E0CB1AD108E108F108D501E1
:10121000ED91FC9100ACF1ADE02DD301AC0DBD1D05
:101220004C914A3010F4405D01C0495C612FC5010A
:101230000995B1E0CB1AD108E108F108EFEFCE161D
:10124000DE06EE06FE0619F7A0960FB6F894DEBF8E
:101250000FBECDBFDF91CF911F910F91FF90EF9007
:10126000DF90CF90BF90AF909F908F907F906F90C6
:101270005F904F903F902F900895FC0188E592E099
:10128000918380838EEF8283138280E88783089521
:101290008CB5411102C0806201C08F7D8CBD80E0A1
:1012A00090E0089580E090E0089581E090E0089556
:1012B000CF92DF92FF920F931F93CF93DF9300D0D3
:1012C00000D0CDB7DEB76C01F62EDC01ED91FC91BC
:1012D000E85AFF4F0190F081E02D29833A834B8338
:1012E0005C830995D601ED91FC9106A4F7A5E02D4C
:1012F00029813A814B815C816F2DC60109950F9040
:101300000F900F900F90DF91CF911F910F91FF9051
:10131000DF90CF900895CB01BA010C946F1D0C940F
:10132000401D0E94401D28EE33E040E050E00E9446
:101330009A24CA01B90108954F925F927F928F92C9
:101340009F92AF92BF92CF92DF92EF92FF920F9354
:101350001F93CF93DF931F92CDB7DEB77C016A0155
:101360008901F90110822A0178E0712CA62EB12C96
:1013700088E0882E912CC2018C199D098A159B0545
:101380007CF5F20181912F0179830E94D51DF7012F
:1013900061897981662379F3F7012189261BAC01E4
:1013A00002C0569547952A95E2F79A01A401471B7A
:1013B0005109042E01C0220F0A94EAF7F801E70D43
:1013C000F11D3081322B3083671710F4761BD3CF99
:1013D000671B7394F801E70DF11D108278E0DACFF6
:1013E00080E090E00F90DF91CF911F910F91FF90DF
:1013F000EF90DF90CF90BF90AF909F908F907F90B5
:101400005F904F900895AF92BF92CF92DF92EF928C
:10141000FF920F931F93CF93DF937901EA0100E0CE
:1014200010E0A62EB12C0A151B05FCF46E0161E03C
:1014300089910E947A1EF80193E0F595E7959A95B7
:10144000E1F7EE0DFF1D608170E0C80187709927FC
:1014500002C0759567958A95E2F76170F601808103
:101460000E94B31E0F5F1F4FDECF80E090E0DF9140
:10147000CF911F910F91FF90EF90DF90CF90BF9091
:10148000AF9008955F926F927F928F929F92AF92EA
:10149000BF92CF92DF92EF92FF920F931F93CF9361
:1014A000DF93542E822E1E2D61E0802F0E947A1E23
:1014B0001170FF24F394F1266F2D802F0E94B31E2C
:1014C000E12CC0E0D0E0912C652C712CC815D90519
:1014D00024F5612F802F0E94B31E40E050E0461596
:1014E0005705A4F48E2D840F90E0F501E80FF91F45
:1014F000D601A80FB91F8C918EBD00000DB407FE58
:10150000FDCF8EB580834F5F5F4FE9CF6F2D802F6A
:101510000E94B31E2196E50CD9CF80E090E0DF91C8
:10152000CF911F910F91FF90EF90DF90CF90BF90E0
:10153000AF909F908F907F906F905F9008956F9283
:101540007F929F92AF92BF92CF92DF92EF92FF92E3
:101550000F931F93CF93DF931F92CDB7DEB78A010E
:1015600079013A01B12CA12C28E0C62ED12CC3015F
:10157000801B910B8C159D05F4F4211108C0F70117
:10158000EA0DF11DB082A394B12C27E001C02150D7
:10159000F30191903F0160E0892D29830E947A1E1A
:1015A000892D0E94E91E2981022E01C0880F0A940C
:1015B000EAF7B82ADCCFF701EA0DF11DB08280E02E
:1015C00090E00F90DF91CF911F910F91FF90EF90DE
:1015D000DF90CF90BF90AF909F907F906F900895D5
:1015E0009F92AF92BF92CF92DF92EF92FF920F93B2
:1015F0001F93CF93DF9300D000D0CDB7DEB7162F67
:10160000842F922EA7019601813029F561E0812F68
:10161000C9823A834B835C830E947A1E61E0812FEA
:101620000E94B31E61E070E080E090E00E946F1DB8
:1016300060E0812F0E94B31E61E070E080E090E0E6
:101640000E946F1D61E0812F0E94B31E29813A81A3
:101650004B815C8126C0823021F561E0812FC982F7
:101660003A834B835C830E947A1E60E0812F0E9444
:10167000B31E61E070E080E090E00E946F1D61E0C9
:10168000812F0E94B31E61E070E080E090E00E9434
:101690006F1D60E0812F0E94B31E5C814B813A81F7
:1016A000298160E0892D29833A834B835C830E94E2
:1016B0007A1E29813A814B815C81011102C060E070
:1016C00003C0013049F461E0892D0E94121FF50129
:1016D000608371838283938380E090E00F900F900A
:1016E0000F900F90DF91CF911F910F91FF90EF908E
:1016F000DF90CF90BF90AF909F900895AF92BF9230
:10170000CF92DF92EF92FF920F931F93CF93DF93CD
:101710007901EA018901A62EB12CC8018E199F0911
:101720008A159B0574F46E0161E089910E947A1E0E
:10173000F80161918F0170E0F60180810E94F21D35
:10174000ECCF80E090E0DF91CF911F910F91FF905F
:10175000EF90DF90CF90BF90AF9008950E94ED0082
:1017600080E090E0089587539F4FDC01ED91FC915C
:10177000E60FF11D8081882319F08F5F808304C0FC
:1017800085E394E00E94BA0180E090E008958F9292
:101790009F92AF92BF92CF92DF92EF92FF920F9300
:1017A0001F93CF93DF93FC01EF53FF4FC081CC2EEB
:1017B000D12CA0E0B0E0E0E0F0E07C0172ECE70EBC
:1017C000F11CEC15FD0584F4E701A880B980AA0E90
:1017D000BB1EE50188809980AA80BB8014962815DD
:1017E00039054A055B0520F4309721F0319702C096
:1017F0003196E7CF611126C0EF01CC0FDD1FCC0F72
:10180000DD1F7C01E2ECEE0EF11CD701ED91FC91A5
:10181000EC0FFD1F408151816281738126E084E7D6
:1018200095E00E942120F701A081B181AC0FBD1F7E
:101830008D919D910D90BC91A02DE8018883998395
:10184000AA83BB8380E090E0DF91CF911F910F913D
:10185000FF90EF90DF90CF90BF90AF909F908F90D0
:101860000895FF920F931F93CF93DF93F42EE80117
:10187000611107C050E0B90184E795E00E94A02102
:10188000888388818F1519F083E890E002C080E09A
:1018900090E0DF91CF911F910F91FF90089561111A
:1018A00004C084E795E00E94832080E090E00895E2
:1018B0003F924F925F926F927F928F929F92AF92E0
:1018C000BF92CF92DF92EF92FF920F931F93CF932D
:1018D000DF93EC016A018A01A62EB12C7C018BEC0E
:1018E000E80EF11CC8018C199D098A159B050CF0A6
:1018F00044C0D8013D908D01632C712C4301880CAC
:10190000991CD701ED91FC91E80DF91D8081918121
:10191000892B41F783E090E00E9475242C010E94FE
:101920001505D701ED91FC911197E80DF91D518234
:101930004082ED91FC91E80DF91DB3018081918108
:101940000E94AF05E881F981E858FF4F0190F081CE
:10195000E02D62EF72E0CE010995E881F981EC5645
:10196000FF4F432D50E060E070E00190F081E02DEA
:101970002AE030E0CE010995B5CF80E090E0DF911C
:10198000CF911F910F91FF90EF90DF90CF90BF907C
:10199000AF909F908F907F906F905F904F903F900F
:1019A00008956F927F928F929F92AF92BF92CF9243
:1019B000DF92EF92FF920F931F93CF93DF93EC018F
:1019C0005A0169018A01662E712C7C018BECE80EAC
:1019D000F11CC8018A199B09861597050CF059C09E
:1019E000E881F981E858FF4F0190F081E02D60E136
:1019F00073E0CE010995D8018C91E881F981EC570B
:101A0000FF4FD7012C9111969C91A22FB92FA80FAF
:101A1000B11DA80FB11D4D915C91662757FD6095D2
:101A2000762F0190F081E02D2AE030E0CE0109957B
:101A3000E881F981E858FF4F0190F081E02D67E1DE
:101A400073E0CE0109954601E881F981EC56FF4F1C
:101A5000D6014D915D916D0160E070E00190F081E3
:101A6000E02D2AE030E0CE010995F80181918F0147
:101A7000D4016D917C91F70120819181E22FF92FA2
:101A8000E80FF11DE80FF11D808191810E94C305CF
:101A9000A0CF80E090E0DF91CF911F910F91FF9058
:101AA000EF90DF90CF90BF90AF909F908F907F90FE
:101AB0006F900895CF92DF92EF92FF920F931F9352
:101AC000CF93DF937A018A01C62ED12CEC01C55346
:101AD000DF4FC8018E199F098C159D05E4F4F801AC
:101AE000808128819981E22FF92FE80FF11DE80FFD
:101AF000F11D808191810E94B505F80181918F01CE
:101B000028819981E22FF92FE80FF11DE80FF11DCF
:101B100011821082DECF80E090E0DF91CF911F91A3
:101B20000F91FF90EF90DF90CF90089561110CC05E
:101B3000E0917405F091750550E00280F381E02D8D
:101B4000B90184E795E0099580E090E00895AF92AF
:101B5000BF92CF92DF92EF92FF920F931F93CF939A
:101B6000DF9300D000D0CDB7DEB78C01613091F0AB
:101B700020F0623009F452C069C081E00E94D21D99
:101B8000F8014289538964897589468B578B608F28
:101B9000718F41C0FC01EC54FF4FE081EE2309F44A
:101BA00055C060E070E080E090E0AE2EB12CD8012E
:101BB000AB54BF4F01C001968A159B050CF049C07C
:101BC000ED90FC901197E60EF71EF701C080D180D2
:101BD000E280F3806C5F7F4FC216D306E406F50601
:101BE00051F7880F991FF801E954FF4F0190F081D8
:101BF000E02DE80FF91F808129833A834B835C83B2
:101C00000E94D21D29813A814B815C81F801268B8B
:101C1000378B408F518F80E090E01DC0FC01E7546E
:101C2000FF4FC080D180E280F3802C153D054E052A
:101C30005F0578F03496C080D180E280F380C216D0
:101C4000D306E406F50628F080E0D6CF81E890E0E0
:101C500002C082E890E00F900F900F900F90DF91FC
:101C6000CF911F910F91FF90EF90DF90CF90BF9099
:101C7000AF9008958F929F92AF92BF92DF92EF92B2
:101C8000FF920F931F93CF93DF9300D000D0CDB777
:101C9000DEB7D62E49015A01A8019701811491049B
:101CA000A104B104C9F061E08D2DE9823A834B8330
:101CB0005C830E947A1E29813A814B815C812115C7
:101CC00031054105510519F420E030E0A901B401C6
:101CD0008D2D0E94C32103C0862F0E94F22380E035
:101CE00090E00F900F900F900F90DF91CF911F9188
:101CF0000F91FF90EF90DF90BF90AF909F908F90EB
:101D00000895CB01642F0C944326CB010C943B2601
:101D10009CB5937F982B9CBD0895413049F030F0DD
:101D2000423041F0433049F48CE005C080E003C00C
:101D300084E001C088E00E94880E80E090E0089571
:101D40002CB5982F93702C7F922B9CBD9DB582FB58
:101D5000882780F99E7F982B9DBD08952F923F92F2
:101D60004F925F926F927F928F929F92AF92BF92AB
:101D7000CF92DF92EF92FF920F931F93CF93DF9357
:101D800000D000D000D0CDB7DEB77C01C12CD12C63
:101D90001E821D823C0164EC660E711C4C0175ECC8
:101DA000870E911C5C0187ECA80EB11CD3018C91AD
:101DB00090E06D817E81681779070CF04CC0D401EA
:101DC000ED91FC91B601660F771FE60FF71F20809B
:101DD0003180428053802215330544055505A8F013
:101DE000F80120823182428253828D819E81880F48
:101DF000991FF701E953FF4F0190F081E02DE80FA3
:101E0000F91F80810E94A00E26C001976D817E81FE
:101E100068177907B1F4D8012D923D924D925C92EA
:101E20001397D501ED91FC91EC0DFD1D8081298367
:101E30003A834B835C830E94A00E5C814B813A8184
:101E400029816D817E816F5F7F4F7E836D8372E01C
:101E5000C70ED11CABCF80E090E026960FB6F89469
:101E6000DEBF0FBECDBFDF91CF911F910F91FF90CD
:101E7000EF90DF90CF90BF90AF909F908F907F902A
:101E80006F905F904F903F902F9008951F93CF9346
:101E9000DF93EC010E943D098FE193E099838883F1
:101EA00083E0888719861A8680E090E00E943B26AE
:101EB000182F81E090E00E943B26EF96212F30E022
:101EC000322F2227282B39832883DF91CF911F912E
:101ED0000895EF92FF920F93CF93DF931F92CDB7A8
:101EE000DEB7642F85E394E029830E94C401402F6C
:101EF00050E0B70185E394E00E944E012981211151
:101F000002C061E003C0213041F460E085E394E069
:101F10000E94CE0180E090E007C061E085E394E09C
:101F20000E94CE0181E890E00F90DF91CF910F9158
:101F3000FF90EF9008954F925F926F927F928F92F1
:101F40009F92AF92BF92CF92DF92EF92FF920F9348
:101F50001F93CF93DF93642F211102C021E003C0B0
:101F6000213099F520E0402F85E394E00E94320271
:101F70000E94401D4B015C0110E02701612C712C77
:101F800085E394E00E9423018017910774F40E9476
:101F9000401D681979098A099B0946165706680683
:101FA000790670F783E890E012C0E601CE018C1943
:101FB0009D098017910734F485E394E00E942B017A
:101FC0008993F4CF80E090E002C081E890E0DF9157
:101FD000CF911F910F91FF90EF90DF90CF90BF9026
:101FE000AF909F908F907F906F905F904F900895EB
:101FF000CF93DF93EA01611105C084E795E00E9469
:102000003E1F888380E090E0DF91CF910895CF93C9
:10201000DF93EC018A819B81DC01ED91FC91E85A10
:10202000FF4F0190F081E02D6885099518AA1FA641
:1020300080E090E0DF91CF9108958FEF9FEF0895BA
:10204000CF93DF93EC018FA598A98430910541F1DE
:102050007CF4892B09F040C0E881F9816A817B8199
:102060000088F189E02D4885CE01DF91CF91099458
:1020700085309105D9F0069779F58A819B81DC013D
:10208000ED91FC91E657FF4F0190F081E02D67EC58
:1020900073E00995E881F9810484F585E02D18C085
:1020A000E881F9810084F185E02D12C08A819B814D
:1020B000DC01ED91FC91E657FF4F0190F081E02D9E
:1020C00069EB73E00995E881F9810284F385E02DDD
:1020D000CE01DF91CF910994DF91CF910895DF92E6
:1020E000EF92FF920F931F93CF93DF9300D000D016
:1020F000CDB7DEB77C018B01D42EDC0113967C9327
:102100006E931297FB01878190E00E940F25D70103
:102110001A969C938E931997F801878190E00E94FC
:102120000F25D7011C969C938E931B97D801ED9198
:10213000FC91E657FF4F0190F081E02D64ED73E0D4
:10214000C8010995F701D08619821A821B821C8268
:1021500082819381DC01ED91FC9106A4F7A5E02D2D
:102160008E010F5F1F4F20E835E240E050E06D2DFB
:10217000099584E090E0F70190AB87A70F900F904E
:102180000F900F90DF91CF911F910F91FF90EF90E3
:10219000DF900895EF92FF920F931F93CF93DF93F9
:1021A00000D0CDB7DEB77C011A82DC0112968D918A
:1021B0009C911397DC01ED91FC9102A8F3A9E02D0D
:1021C000AE014E5F5F4FD70118966C9109958A81D9
:1021D000823008F431C11982F70182819381DC01D8
:1021E000ED91FC91D70119962D913C911A9704A875
:1021F000F5A9E02D8E010F5F1F4F42E018966C91FC
:102200000995D7011996ED91FC911A9720811296A4
:102210008D919C911397DC01ED91FC9102A8F3A99B
:10222000E02DAE014E5F5F4FD70118966C912F3FA6
:1022300009F0EBC009952A8130E0D7011996ED919C
:10224000FC911A97818190E002972817390734F1A1
:10225000F701828193810184F285E02DDC016D918B
:102260007C919F012E5F3F4F41814250DB01D4960C
:10227000ED91FC91D5978E010F5F1F4FD7011896F6
:102280006C910995F70161857285C7010E94AC12B6
:10229000F701A281B38181115AC0A4C005E610E004
:1022A0002A8130E0D7011996ED91FC911A9781812E
:1022B00090E00297281739075CF6D70112968D91A6
:1022C0009C911397DC01ED91FC9102A8F3A9E02DFC
:1022D000AE014E5F5F4FD70118966C910995015082
:1022E0001109F70182819381DC01ED91FC910115C7
:1022F000110511F502A8F3A9E02DAE014E5F5F4F65
:10230000D70118966C910995F70182819381DC01C0
:10231000ED91FC91D70119962D913C911A9704A843
:10232000F5A9E02D8E010F5F1F4F4A8118966C9121
:1023300009958FEF9FEF8EC0E259FF4F0190F0811A
:10234000E02D41E050E060E070E00995A9CFED910B
:10235000FC911197CF018A569F4FF7014185528515
:10236000FC012081318161E0CD01F9010995D7019E
:102370001B964D915C911C9719966D917C911A97C3
:10238000C7010E940D13049729F485E090E0F7013E
:1023900090AB87A7D70112968D919C911397DC0182
:1023A000ED91FC91EA56FF4FD7011B964D915C9140
:1023B0001C970190F081E02D60E00995F701828182
:1023C0009381A385B485FC0120813181F90106A99F
:1023D00017A99D0111964C91D70118966C91F8019F
:1023E000099536C0ED91FC91119722A933A9AE0150
:1023F0004E5F5F4FF7016085CD01F9010995D70167
:1024000012968D919C91139704C00995F7018281D2
:102410009381DC01ED91FC91D70119962D913C91AE
:102420001A9704A8F5A9E02D8E010F5F1F4F4A816E
:1024300018966C9109950CC0D7019D96ED91FC9171
:102440009E97309729F060E070E080E090E0099579
:1024500080E090E00F900F90DF91CF911F910F914E
:10246000FF90EF900895CF93DF93EC010E949412B8
:102470008EEE93E09983888318AA1FA61F821E827E
:10248000DF91CF9108958AE395E00C9433128FEF9A
:102490009FEF08958FEF9FEF08958FEF9FEF0895BF
:1024A0008FEF9FEF08958FEF9FEF08958FEF9FEFCE
:1024B00008958FEF9FEF0895CF93DF93DC0114967B
:1024C000CD91DC911597C430D105B9F054F4209723
:1024D00029F5DC01ED91FC910190F081E02D099549
:1024E0001FC0C530D10581F02697C1F4DC01ED9104
:1024F000FC910484F585E02D0DC0DC01ED91FC918B
:102500000084F185E02D06C0DC01ED91FC91028490
:10251000F385E02D0995C0E0D0E002C0C0E8D0E02E
:10252000CE01DF91CF91089522E134E0FC013183A7
:102530002083158214820895FB01218130E021500F
:10254000310980E0AF01461B570B421753071CF4BB
:102550009191890FF7CF0895CF93DF93EB010E94FC
:102560009C129981C90FD11D219791E02881821376
:1025700090E0892FDF91CF9108950F931F93CF9310
:10258000DF93FA014FEF408346E0420F4183DB01C6
:1025900012964C911297428313964C9143830F3FAE
:1025A000110509F010F4048302C043E04483E901FB
:1025B0002596CE0FDF1FBF010E949C128883DF91FA
:1025C000CF911F910F9108950F931F93890120E0E0
:1025D00030E00E94BD121F910F910895EF92FF927B
:1025E0000F931F93CF93DF93D901EA012596F90149
:1025F000202F30E08F010A1B1B0B021713071CF45E
:1026000011911993F7CF87010E94BD12DF91CF91ED
:102610001F910F91FF90EF9008952F923F924F924C
:102620005F926F927F928F929F92AF92BF92CF9262
:10263000DF92EF92FF920F931F93CF93DF9300D01F
:1026400000D000D0CDB7DEB73C014B012A012DB63A
:102650003EB6DB0114962C91149730E0322F2227DE
:1026600015968C91282B2115BCEF3B07C0F01982E1
:10267000F901FC5FEE0FFF1FE60DF71D9A012B5FBE
:102680003F4F6A5F7F4FD40111968C910584F68588
:10269000E02DAE014F5F5F4F8750099566C724322A
:1026A000310509F4D1C508F007C12231310509F41B
:1026B000D4C208F07BC02A30310509F488C208F082
:1026C0004FC02530310509F44EC258F4233031058E
:1026D00009F41BC208F02AC2232B09F4F1C70C9499
:1026E000CE1C2830310509F45CC208F065C22630E2
:1026F000310511F00C94CE1CFB01208530E0322F07
:102700002227442737FD4095542F8185282B198295
:102710001A821B821C82D30112968D919C91139771
:10272000DC01ED91FC9100A8F1A9E02D8E010F5F75
:102730001F4FD30118966C9109957C01F30182819A
:102740009381DC01ED91FC91E259FF4F0190F08102
:10275000E02D48EE53E060E070E009950C94C71C52
:10276000F301A281B3812E30310509F44DC278F412
:102770002C30310509F436C208F03DC297962D91F0
:102780003C919897E12CF12C96960C9167C52031DD
:10279000310509F442C208F049C2D7962D913C9107
:1027A000D897E12CF12CD6960C9158C52A313105D9
:1027B00009F4ADC380F5D30112968D919C911397C6
:1027C0002631310509F4FAC290F42431310509F4B7
:1027D0007CC208F0D1C2FC01FF968181FA01858399
:1027E000D3011296ED91FC91139787AD67C2283102
:1027F000310509F411C308F065C3FC01EB5BFF4F21
:102800008181FA018583D3011296ED91FC91139792
:10281000EB5BFF4F52C22E31310509F429C4B8F4E5
:10282000F301828193812C31310509F4A3C308F0AF
:10283000FDC3FC01E55BFF4F8181FA018583D30174
:102840001296ED91FC911397E55BFF4F36C2203253
:10285000310509F438C408F427C42232310509F4DB
:1028600093C42332310511F00C94CE1CD30112967F
:10287000ED91FC911397E055FF4F8381FA01858319
:102880001296ED91FC911397E055FF4F8281DA018A
:1028900016968C93D3011296ED91FC911397E05507
:1028A000FF4F8181FA0187831296ED91FC91139776
:1028B000E055FF4F808191C5213E310509F479C66D
:1028C00008F0ACC02436310509F494C508F069C09D
:1028D0002334310509F407C5B0F42134310509F476
:1028E000C3C408F0D7C42532310511F00C94CE1CB6
:1028F000D3011296ED91FC91139725AD36ADE12CE5
:10290000F12C04ADABC42036310509F425C52136C0
:10291000310509F445C52434310511F00C94CE1C61
:10292000F30182819381DC01ED91FC91DB011A9628
:102930002C911A971B96CC901B97D12CE12CF12C43
:102940007601DD24CC24F22A1D962C911D97C22AF3
:102950001C962C911C97D22A0488F589E02D9E01A3
:102960002F5F3F4F590119960C91199716962C918C
:10297000169718964C91189717966C9109957C01AB
:1029800089819A812B813C81D20115963C931597C0
:1029900016962C93169717969C93179718968C93C8
:1029A000C3C6223C310509F4ADC500F5203C310514
:1029B00009F460C508F079C52338310509F0EEC780
:1029C000F30182819381DB0116966C91DC01ED911C
:1029D000FC91262F30E0295F3F4F280D391DA401BF
:1029E000495F5F4F0688F789E02D42C5243C3105D9
:1029F00009F4BEC508F4A0C5253C310509F4CDC5D0
:102A0000203E310509F0CAC7F30182819381DC01C0
:102A1000ED91FC9104A0F5A1E02D2CC62730F1E04A
:102A20003F0709F485C6D8F5211591E0390709F467
:102A300026C6B0F4233E310509F4F4C508F4D4C524
:102A4000243E310509F0AAC7D30112968D919C91BD
:102A50001397DC01ED91FC9104A4F5A5E02D0AC6C5
:102A60002230B1E03B0709F42EC608F419C6233022
:102A7000314009F093C7D30112968D919C91139721
:102A8000DC01ED91FC91068CF78DE02DDB011796B2
:102A90004C91179716966C9109957C0145C6203686
:102AA00081E0380709F402C7B8F42134A1E03A07FD
:102AB00009F476C62234B1E03B0709F4E3C62034BA
:102AC000314009F06BC7F30182819381DC01ED9104
:102AD000FC91E65AFF4FDEC62236F1E03F0709F4CB
:102AE00022C708F4FDC6233691E0390709F442C72E
:102AF0002436314009F052C7F30182819381DC0111
:102B0000ED91FC91E859FF4F3DC7D3011296ED912D
:102B1000FC9113978281FA0185831296ED91FC91C5
:102B200013978381DA0116968C93CAC0D30112964B
:102B3000ED91FC9113978085FA0185831296ED91B2
:102B4000FC9113978185DA0116968C93D301129626
:102B5000ED91FC9113978285FA01878300E010E0E4
:102B600023E030E041C4D3011296ED91FC9113971C
:102B700082A9FA0185831296ED91FC91139781A9A0
:102B8000DA0116968C93D3011296ED91FC9113976E
:102B900080A9FA0187831296ED91FC91139787A57E
:102BA0001CC4D3011296ED91FC91139724853585B1
:102BB000E12CF12C038552C3D3011296ED91FC91C7
:102BC000139727853089E12CF12C068547C3D30163
:102BD0001296ED91FC911397238D348DE12CF12CFD
:102BE000028D3CC39A962D913C919B97E12CF12C40
:102BF00099960C9133C39D962D913C919E97E12C13
:102C0000F12C9C960C912AC3D4962D913C91D5978A
:102C1000E12CF12CD3960C9121C3DA962D913C91A5
:102C2000DB97E12CF12CD9960C9118C3ED91FC9116
:102C30001197E657FF4F0190F081E02D60E074E0BE
:102C4000CD01099520E030E0A201B401C3010E944A
:102C5000E412E4E0EE2EF12CAAC6F3018281938106
:102C6000FC01FF96DB0116962C91169730E0322F6F
:102C7000222717964C91242B31832083DC01ED9180
:102C8000FC91E059FF4F0190F081E02DD4011696A0
:102C90004C9160E070E00995F30182819381DC0141
:102CA000ED91FC91E059FF4F0190F081E02DD401AE
:102CB00017964C9161E070E05DC08081F2018683DF
:102CC00000E010E022E030E08FC3FC01EF5BFF4F3B
:102CD000DB0118964C91189750E0542F4427199611
:102CE0002C91422B662757FD6095762F40835183A8
:102CF00062837383DC01ED91FC91E059FF4F0190F9
:102D0000F081E02DD40116964C9162E070E00995B7
:102D1000F30182819381DC01ED91FC91E059FF4F39
:102D20000190F081E02DD40117964C9163E070E0A2
:102D30000995F30182819381DC01ED91FC91E059C9
:102D4000FF4F0190F081E02DD40118964C9164E082
:102D500070E00995F30182819381DC01ED91FC9192
:102D6000E059FF4F0190F081E02DD40119964C916C
:102D700065E070E00995A4C4FC01EF5BFF4F83811F
:102D8000FA018583D3011296ED91FC911397EF5BC5
:102D9000FF4F8281FA0186831296ED91FC91139781
:102DA000EF5BFF4F8181DA0117968C93D301129666
:102DB000ED91FC911397EF5BFF4FA5C0FC01EB5B1E
:102DC000FF4FDB0116962C91169730E0322F222709
:102DD00017964C91242B31832083DC01ED91FC91DB
:102DE000E059FF4F0190F081E02DDB0116964C91E8
:102DF00066E070E00995F30182819381DC01ED9139
:102E0000FC91E059FF4F0190F081E02DD40117961D
:102E10004C9167E070E0AECFFC01E95BFF4FDB0156
:102E200018964C91189750E0542F442719962C91DE
:102E3000422B662757FD6095762F4083518362832E
:102E40007383DC01ED91FC91E059FF4F0190F0811B
:102E5000E02DD40116964C9168E070E00995F301DD
:102E600082819381DC01ED91FC91E059FF4F01904B
:102E7000F081E02DD40117964C9169E070E009953E
:102E8000F30182819381DC01ED91FC91E059FF4FC8
:102E90000190F081E02DD40118964C916AE070E029
:102EA0000995F30182819381DC01ED91FC91E05958
:102EB000FF4F0190F081E02DD40119964C916BE009
:102EC00070E058CFFC01E95BFF4F8381FA018583F5
:102ED000D3011296ED91FC911397E95BFF4F82812C
:102EE000FA0186831296ED91FC911397E95BFF4FEF
:102EF0008181DA0117968C93D3011296ED91FC91A2
:102F00001397E95BFF4F8081F201808769C2D3018B
:102F100012968D919C911397FC01E55BFF4FDB01AD
:102F200016962C91169730E0322F222717964C9147
:102F3000242B31832083DC01ED91FC91E059FF4F7C
:102F40000190F081E02DDB0116964C916CE070E071
:102F50000995F30182819381DC01ED91FC91E059A7
:102F6000FF4F0190F081E02DD40117964C916DE058
:102F700070E000CFDB0116962C91FC01E35BFF4F64
:102F8000213278F020E22083F30182819381DC01F9
:102F9000ED91FC91E059FF4F0190F081E02D40E26E
:102FA0000FC02083F30182819381DC01ED91FC91BC
:102FB000E059FF4F0190F081E02DDB0116964C9116
:102FC0006EE070E009957401B7E0EB0EF11C00E0D3
:102FD00010E0D30112968D919C911397FC01E35B55
:102FE000FF4F208130E0021713070CF069C3D701AF
:102FF000800F911F9C01225B3F4FF70181917F0160
:10300000F9018083F30182819381FC012081318168
:10301000F901E059FF4FB801615F7F4F0190F081E6
:10302000E02D4C9109950F5F1F4FD3CFFC01E35B5F
:10303000FF4F8081FA018583369680E090E0D301CE
:1030400012964D915C911397DA01A35BBF4F2C91BF
:1030500030E0821793074CF4480F591FDA01A25B46
:10306000BF4F2C9121930196EACF00E010E0BCC144
:10307000D3011296ED91FC911397DB0116968C917A
:10308000E259FF4F8083F30182819381DC01ED914E
:10309000FC91E059FF4F0190F081E02DDB01169685
:1030A0004C9160E370E066CED3011296ED91FC91F5
:1030B0001397E259FF4F8081FA01858300E010E009
:1030C00021E030E091C1DB0116962C91F301828161
:1030D0009381FC01E159FF4F213488F020E42083E3
:1030E000D30112968D919C911397DC01ED91FC9187
:1030F000E059FF4F0190F081E02D40E40FC02083A4
:10310000F30182819381DC01ED91FC91E059FF4F45
:103110000190F081E02DDB0116964C9161E370E0A7
:1031200009957401B7E0EB0EF11C00E010E0D3014B
:1031300012968D919C911397FC01E159FF4F2081CC
:1031400030E0021713070CF0BBC2D701800F911FAC
:103150009C0120593F4FF70181917F01F901808344
:10316000F30182819381FC0120813181F901E059D1
:10317000FF4FB8016E5C7F4F0190F081E02D4C91C4
:1031800009950F5F1F4FD3CFF30182819381FC011B
:10319000E055FF4FDB0116962C91169717964C9130
:1031A000179750E060E070E0BA0155274427722B72
:1031B00019962C911997422B18962C91522B4083DB
:1031C000518362837383DC01ED91FC91E059FF4FE1
:1031D0000190F081E02DD40116964C9162E770E0E9
:1031E0000995F30182819381DC01ED91FC91E05915
:1031F000FF4F0190F081E02DD40117964C9163E7C9
:1032000070E00995F30182819381DC01ED91FC91DD
:10321000E059FF4F0190F081E02DD40118964C91B8
:1032200064E770E00995F30182819381DC01ED91FF
:10323000FC91E059FF4F0190F081E02DD4011996E7
:103240004C9165E770E096CDD3011296ED91FC911B
:10325000139725813681E12CF12C0481A201B40160
:10326000C3010E94EE12A3C3F30182819381DB01AB
:1032700016966C91DC01ED91FC91262F30E0295FD0
:103280003F4F280D391DA401495F5F4F0284F3852C
:10329000E02DEEC0FB011181D30112968D919C911E
:1032A0001397DC01ED91FC919A012B5F3F4FAB012D
:1032B0004A5F5F4F69EF610F0684F785E02D09953E
:1032C0007C01212F30E02850310953E035952795B6
:1032D0005A95E1F72F5F30E08701A201B401C301E5
:1032E0000E94BD1264C3F30182819381DC01ED91E0
:1032F000FC91DB011B96EC901B974E2D50E060E09B
:1033000070E0142F0027FF24EE241E962C911E97A8
:10331000E22A1D964C911D9750E0542F44276627B2
:1033200057FD6095762FE42AF52A062B172B199660
:103330002C91199730E0322F2227442737FD4095F2
:10334000542F1A966C911A97262B0288F389E02D38
:1033500016966C9109951AC3F30182819381DC0161
:10336000ED91FC91DB0117966C91179718962C91B3
:103370001897022F10E020E030E0A8013327222721
:10338000562B1A966C911A97262B19966C911997B1
:10339000362B0084F185E02D16966C910995F6C2C6
:1033A000D3011296ED91FC911397818DFA018583DB
:1033B0001296ED91FC911397808DDA0116968C93FD
:1033C000D3011296ED91FC9113978789FA018783B7
:1033D0001296ED91FC9113978689D20118968C93E1
:1033E00000E010E024E030E0A201B401C3010E943B
:1033F000BD12DBC2D3011296ED91FC911397818926
:10340000FA01858312968D919C911397DC01ED91C1
:10341000FC91DB0111966C9167500480F581E02DE1
:103420009A012A5F3F4FA4014A5F5F4F09957C01D3
:10343000F401818190E00797D3011296ED91FC9100
:1034400013972189289FA001299F500D1124CA019B
:1034500023E0969587952A95E1F7282F4770552701
:10346000452B11F021E0280F30E02F5F3F4F34CF84
:1034700009958CC2FB01218530E0322F2227442799
:1034800037FD4095542F8285282B19821A821B8282
:103490001C82D30112968D919C911397DC01ED91C2
:1034A000FC9106A4F7A5E02D1BC0DB0119962C9119
:1034B000199730E0322F2227442737FD4095542FAB
:1034C0001A968C91282B19821A821B821C82F30176
:1034D00082819381DC01ED91FC9100A8F1A9E02D9E
:1034E0008E010F5F1F4FD40116966C9109957C01D8
:1034F00089819A812B813C81F201358326839783D0
:10350000808712C1D30112968D919C911397DC0193
:10351000ED91FC9102A8F3A9E02DAE014F5F5F4F42
:10352000DB0116966C9109957C018981F2018583F6
:10353000870121E030E0D1CE1982D30112968D911E
:103540009C911397DC01ED91FC919A012B5F3F4F09
:1035500004A8F5A9E02D8E010F5F1F4FDB01179620
:103560004C91179716966C9109957C012981B3CEE1
:10357000F30182819381DC01ED91FC919B01295F34
:103580003F4FDB0111964C911197485006A8F7A9BF
:10359000E02D16966C910995F9C1F3018281938112
:1035A000DC01ED91FC91E85AFF4F0190F081E02D94
:1035B00061C0FB01218530E0322F2227442737FDEF
:1035C0004095542F8285282B19821A821B821C82D7
:1035D000D30112968D919C911397DC01ED91FC9192
:1035E00006A0F7A1E02D7CCFD30112968D919C917E
:1035F0001397DC01ED91FC917B01B9E0EB0EF11C1E
:10360000DB0111960C9111970A5000A4F1A5E02D51
:1036100018962C91189717964C91179716966C91AF
:103620000995B4C1F30182819381DC01ED91FC9194
:103630006A01B5E0CB0ED11CDB011996EC9019970D
:10364000F12CFE2CEE241A962C911A97E22A02A451
:10365000F3A5E02D18960C9118971B962C911B97AB
:1036600017964C91179716966C9109957C01F40169
:10367000208531CED40116966C91099587C1F3014E
:1036800082819381DC01ED91FC91028CF38DE02D20
:10369000DB0116966C9109957C0120E030E078C141
:1036A000F30182819381DC01ED91FC91048CF58D15
:1036B000E02DDB0117964C91179716966C910995A2
:1036C00020E030E06DC1FB0187812085422F50E072
:1036D00060E070E033272227582B8285282B8185D4
:1036E000382B19821A821B821C82D30112968D916B
:1036F0009C911397DC01ED91FC9100A0F1A1E02DCC
:103700008E010F5F1F4FD40116966C9109957C01B5
:1037100089819A812B813C81F201358326839783AD
:10372000808700E010E001C0870124E030E0D5CDC3
:10373000D3011296ED91FC911397DB0117964C91F2
:10374000008111815201B5E0AB0EB11C6B012AE082
:10375000C20ED11CDB0111968C9190E00B97642F67
:1037600070E00E948624262FD80192960D90BC917D
:10377000A02DBE83AD83D4011996EC9019971896AD
:103780000C91189716966C91CF01ED81FE810995E9
:103790007C01D40111962C9130E02B5031099CCD45
:1037A000ADB6BEB6DB011696EC91F0E0CF01880F06
:1037B000991F2DB73EB7281B390B0FB6F8943EBFA3
:1037C0000FBE2DBF0DB71EB70F5F1F4FE60FF71FC0
:1037D0003896B80180E090E0D40116962C9130E044
:1037E000821793078CF49F0121503109D9012C9144
:1037F00030E0322F22274081242BDB012D933D9393
:10380000BD0101963296E8CF6801E12CF12CF4015C
:103810006681262F30E0D30112968D919C911397EB
:10382000E216F306ACF4F601419151916F01DC010F
:10383000ED91FC91EC56FF4F60E070E00190F0815B
:10384000E02D2AE030E00995BFEFEB1AFB0ADFCF4D
:10385000DC01ED91FC91E45AFF4FA401495F5F4FF9
:103860000190F081E02D980109957C019C01A20155
:10387000B401C3010E94E4120FB6F894BEBE0FBE9D
:10388000ADBE95C0F30182819381DC01ED91FC9185
:10389000E25AFF4FA4014A5F5F4FD40111966C9129
:1038A00067500190F081E02D099570C0F30182818D
:1038B0009381DC01ED91FC91E05AFF4FDB011696FC
:1038C0006C91169770E0762F662717962C911797B4
:1038D000622B0190F081E02D18964C91099556C00D
:1038E000F30182819381DC01ED91FC91EE59FF4F50
:1038F000DB0116966C91169770E0762F6627179667
:103900002C911797622B0190F081E02D1B96EC9083
:103910001B971A960C911A9719962C91199718962D
:103920004C91099533C0F30182819381DC01ED91C3
:10393000FC91EC59FF4F9B01255F3F4FDB0118962F
:103940004C91189750E0542F442719966C91199771
:10395000462B16966C91169770E0762F6627179671
:103960001C911797612B0190F081E02D1A960C9114
:1039700009950CC0F30182819381DC01ED91FC91EA
:10398000EA59FF4F0190F081E02D09957C019701E4
:10399000A201B401C3010E94E41209C021E030E099
:1039A000A201B401C3010E94E412E12CF12CC70171
:1039B0000FB6F8943EBE0FBE2DBE26960FB6F894F5
:1039C000DEBF0FBECDBFDF91CF911F910F91FF9052
:1039D000EF90DF90CF90BF90AF909F908F907F90AF
:1039E0006F905F904F903F902F9008951F920F928D
:1039F0000FB60F9211242F933F938F939F93AF9302
:103A0000BF9380916C0590916D05A0916E05B0916A
:103A10006F0530916B0523E0230F2D3720F40196BD
:103A2000A11DB11D05C026E8230F0296A11DB11DE1
:103A300020936B0580936C0590936D05A0936E05A4
:103A4000B0936F058091700590917105A0917205FA
:103A5000B09173050196A11DB11D809370059093DF
:103A60007105A0937205B0937305BF91AF919F91BB
:103A70008F913F912F910F900FBE0F901F9018952F
:103A80002FB7F89460916C0570916D0580916E056B
:103A900090916F052FBF08953FB7F89480917005FE
:103AA00090917105A0917205B091730526B5A89B00
:103AB00005C02F3F19F00196A11DB11D3FBF66271C
:103AC000782F892F9A2F620F711D811D911D42E061
:103AD000660F771F881F991F4A95D1F70895CF92D7
:103AE000DF92EF92FF92CF93DF936B017C010E94F4
:103AF0004C1DEB01C114D104E104F10489F00E94D2
:103B000079240E944C1D6C1B7D0B683E734090F322
:103B100081E0C81AD108E108F108C851DC4FEACFAA
:103B2000DF91CF91FF90EF90DF90CF900895789440
:103B300084B5826084BD84B5816084BD85B58260B2
:103B400085BD85B5816085BDEEE6F0E08081816050
:103B50008083E1E8F0E01082808182608083808150
:103B600081608083E0E8F0E0808181608083E1EB28
:103B7000F0E0808184608083E0EBF0E08081816010
:103B80008083EAE7F0E080818460808380818260C6
:103B900080838081816080838081806880831092AF
:103BA000C10008958093680108958E3008F08E500A
:103BB00087702091680190E4299F90011124822B45
:103BC00080937C0080917A00806480937A00809159
:103BD0007A0086FDFCCF809178002091790090E0FA
:103BE000922B08951F93CF93DF93182FEB0161E081
:103BF0000E947A1E209711F460E004C0CF3FD105E7
:103C000039F461E0812FDF91CF911F910C94B31EA5
:103C1000E12FF0E0E859FF4FE491E330F9F048F488
:103C2000E130B9F0E230A1F584B5806284BDC8BD51
:103C300034C0E730E9F0E83019F1E43049F580911B
:103C40008000806280938000D0938B00C0938A00B4
:103C500024C084B5806884BDC7BD1FC0809180002A
:103C6000806880938000D0938900C093880015C03D
:103C70008091B00080688093B000C093B3000DC005
:103C80008091B00080628093B000C093B40005C002
:103C9000C038D1050CF0B5CFAFCFDF91CF911F91D8
:103CA0000895833081F028F4813099F08230A1F0BA
:103CB00008958730A9F08830B9F08430D1F480912C
:103CC00080008F7D03C0809180008F77809380007B
:103CD000089584B58F7702C084B58F7D84BD089523
:103CE0008091B0008F7703C08091B0008F7D80936A
:103CF000B0000895CF93DF9390E0FC01E458FF4FAC
:103D00002491FC01E057FF4F8491882349F190E012
:103D1000880F991FFC01E854FF4FA591B49182557B
:103D20009F4FFC01C591D4919FB7611108C0F894D1
:103D30008C91209582238C93888182230AC06230E3
:103D400051F4F8948C91322F309583238C93888191
:103D5000822B888304C0F8948C91822B8C939FBF14
:103D6000DF91CF9108950F931F93CF93DF931F920D
:103D7000CDB7DEB7282F30E0F901E859FF4F849125
:103D8000F901E458FF4F1491F901E057FF4F0491F6
:103D90000023C9F0882321F069830E94511E6981A4
:103DA000E02FF0E0EE0FFF1FE255FF4FA591B49119
:103DB0009FB7F8948C91611103C01095812301C0C5
:103DC000812B8C939FBF0F90DF91CF911F910F910B
:103DD0000895CF93DF93282F30E0F901E859FF4F82
:103DE0008491F901E458FF4FD491F901E057FF4F56
:103DF000C491CC2391F081110E94511EEC2FF0E070
:103E0000EE0FFF1FEC55FF4FA591B4912C912D2380
:103E100081E090E021F480E002C080E090E0DF915A
:103E2000CF9108950F931F93762F90E0FC01E458F3
:103E3000FF4F6491FC01E057FF4FE4917111762F21
:103E4000F0E0EE0FFF1FEC55FF4F85919491890133
:103E50009A013F70472F0E948F00611571058105FF
:103E6000910531F06F5F7F4F8F4F9F4F9F7003C061
:103E700060E070E0CB011F910F910895FC01818DEE
:103E8000228D90E0805C9F4F821B91098F73992750
:103E90000895FC01918D828D981731F0828DE80F85
:103EA000F11D858D90E008958FEF9FEF0895FC013F
:103EB000918D828D981761F0828DDF01A80FB11D61
:103EC0005D968C91928D9F5F9F73928F90E0089585
:103ED0008FEF9FEF08958DEF90E2892B49F080E0FE
:103EE00090E0892B29F00E94FD2081110C940000A4
:103EF0000895FC01848DDF01A80FB11DA35ABF4FA7
:103F00002C91848D90E001968F739927848FA689D8
:103F1000B7892C93A089B1898C9180648C93938DFF
:103F2000848D981306C00288F389E02D80818F7DEF
:103F300080830895CF93DF93EC01888D8823C9F0A7
:103F4000EA89FB89808185FD05C0A889B9898C91A2
:103F500086FD0FC00FB607FCF5CF808185FFF2CF3D
:103F6000A889B9898C9185FFEDCFCE010E94791F78
:103F7000E7CFDF91CF910895CF92DF92FF920F9319
:103F80001F93CF93DF931F92CDB7DEB76C0181E013
:103F9000D60158968C9358975B969C915B975C964C
:103FA0008C915C97981307C05096ED91FC915197B6
:103FB000808185FD2EC0F601038D10E00F5F1F4F3D
:103FC0000F731127F02EF601848DF81211C00FB671
:103FD00007FCF9CFD6015096ED91FC915197808165
:103FE00085FFF1CFC60169830E94791F6981EBCFFC
:103FF000838DE80FF11DE35AFF4F6083D6015B9676
:104000000C935B975296ED91FC915397808180625F
:104010000CC0D6015696ED91FC915797608350964F
:10402000ED91FC91519780818064808381E090E0E4
:104030000F90DF91CF911F910F91FF90DF90CF9064
:104040000895BF92CF92DF92EF92FF92CF93DF93CA
:10405000EC016A017B01B22EE889F98982E0808354
:10406000411581EE580761057105A1F060E079E026
:104070008DE390E0A70196010E949A242150310916
:10408000410951095695479537952795211580E1A6
:10409000380798F0E889F989108260E874E88EE1C1
:1040A00090E0A70196010E949A242150310941090C
:1040B00051095695479537952795EC85FD853083B1
:1040C000EE85FF852083188EEC89FD89B082EA8910
:1040D000FB89808180618083EA89FB898081886097
:1040E0008083EA89FB89808180688083EA89FB89F3
:1040F00080818F7D8083DF91CF91FF90EF90DF9063
:10410000CF90BF900895CF93DF93EC01E881F981C0
:104110000284F385E02D0995EA89FB8980818F7EF1
:104120008083EA89FB898081877F8083EA89FB8994
:1041300080818F778083EA89FB8980818F7D80836E
:104140008A8D898FDF91CF9108951F920F920FB6BC
:104150000F9211242F938F939F93EF93FF93E091EE
:104160008405F09185058081E0918A05F0918B05A9
:1041700082FD12C0908180918D058F5F8F73209199
:104180008E05821751F0E0918D05F0E0EC58FA4F62
:10419000958F80938D0501C08081FF91EF919F9154
:1041A0008F912F910F900FBE0F901F9018951F9217
:1041B0000F920FB60F9211242F933F934F935F935B
:1041C0006F937F938F939F93AF93BF93EF93FF93DF
:1041D00084E795E00E94791FFF91EF91BF91AF9125
:1041E0009F918F917F916F915F914F913F912F910F
:1041F0000F900FBE0F901F90189584E795E00E94D6
:104200003E1F21E0892B09F420E0822F08951092AF
:1042100077051092760588EE93E0A0E0B0E08093F9
:10422000780590937905A0937A05B0937B0586E293
:1042300094E0909375058093740585EC90E09093DD
:1042400081058093800584EC90E0909383058093B2
:10425000820580EC90E0909385058093840581EC45
:1042600090E0909387058093860582EC90E0909390
:1042700089058093880586EC90E090938B05809368
:104280008A0510928D0510928E0510928F0510925E
:1042900090050895CF92DF92EF92FF920F931F93B4
:1042A000CF93DF937C016A01EB0100E010E00C1575
:1042B0001D0571F06991D701ED91FC910190F0819C
:1042C000E02DC7010995892B19F00F5F1F4FEFCF24
:1042D000C801DF91CF911F910F91FF90EF90DF9078
:1042E000CF9008950F931F93CF93DF93EC010E941B
:1042F000401D688779878A879B87E881F9810680D6
:10430000F781E02DCE01099597FF15C00E94401D51
:10431000088519852A853B85601B710B820B930BE1
:104320000C811D812E813F816017710782079307E1
:1043300020F38FEF9FEFDF91CF911F910F910895A1
:10434000CF92DF92EF92FF920F931F93CF93DF9361
:104350007C016A01EB0100E010E00C151D0549F03D
:10436000C7010E94722197FD04C089930F5F1F4F00
:10437000F4CFC801DF91CF911F910F91FF90EF9083
:10438000DF90CF9008953F924F925F926F927F920D
:104390008F929F92AF92BF92CF92DF92EF92FF9255
:1043A0000F931F93CF93DF9300D000D0CDB7DEB72C
:1043B0008B0129013A0190916901981721F09F3FE3
:1043C00009F0DAC104C0E2ECF0E0349081C08093DF
:1043D0006901E2ECF0E0E491EF3F09F4CDC1E13096
:1043E00031F1E23009F44BC0E11171C014BC15BCCD
:1043F00094B5926094BD95B5916095BD282F30E03D
:10440000F901E057FF4FE491F0E0EE0FFF1FE25596
:10441000FF4F459154915093210640932006F90196
:10442000E458FF4F249120931F06312C53C0109263
:10443000800010928100909181009860909381009B
:1044400090918100916090938100282F30E0F901D4
:10445000E057FF4FE491F0E0EE0FFF1FE255FF4FF2
:104460004591549150931A0640931906F901E45866
:10447000FF4F249120931806332433942BC01092BD
:10448000B0001092B1009091B00092609093B00093
:104490009091B10091609093B100282F30E0F90124
:1044A000E057FF4FE491F0E0EE0FFF1FE255FF4FA2
:1044B000459154915093130640931206F901E45824
:1044C000FF4F24912093110652E0352E03C03E2E5B
:1044D00037FC52C161E00E947A1E4801A12CB12C28
:1044E000832D8D7F09F0C7C060E072E18AE790E01C
:1044F000A50194010E94BC2429833A834B835C83E9
:1045000069017A0181E0C81AD108E108F1089FEF3A
:10451000C916D104E104F10409F008F49AC060E47A
:1045200072E48FE090E0A50194010E94BC2469012F
:104530007A01E1E0CE1AD108E108F108F2E03F1279
:1045400019C08FEFC816D104E104F10409F008F492
:104550008AC060E970ED83E090E0A50194010E94BB
:10456000BC2469017A0191E0C91AD108E108F10877
:1045700083E001C082E0EFEFCE16D104E104F10444
:1045800009F008F467C068E478EE81E090E0A501E6
:1045900094010E94BC2469017A01F1E0CF1AD1088C
:1045A000E108F1083320E1F082E038121BC09FEFF0
:1045B000C916D104E104F10409F008F4DBC064E297
:1045C00074EF80E090E0A50194010E94BC24690191
:1045D0007A01E1E0CE1AD108E108F10885E003C0D4
:1045E00083E001C084E0FFEFCF16D104E104F104C1
:1045F00089F180F162E17AE780E090E0A501940121
:104600000E94BC2469017A0181E0C81AD108E1083E
:10461000F108311002C084E001C086E09FEFC916A6
:10462000D104E104F104B1F0A8F0C980DA80EB8094
:10463000FC809AE0F594E794D794C7949A95D1F7C3
:10464000E1E0CE1AD108E108F108332031F087E02B
:104650000BC081E0332011F007C085E095B5987F4D
:10466000982B95BD38C082E09091B100987F982B2F
:104670009093B10030C060E072E18AE790E0A5015C
:1046800094010E94BC2469017A01F1E0CF1AD1089B
:10469000E108F108C114D10481E0E806F10488F0D2
:1046A00068E478EE81E090E0A50194010E94BC24CA
:1046B00069017A0191E0C91AD108E108F10893E093
:1046C00001C091E0E1E03E1206C080918100887F48
:1046D000892B80938100411451046104710471F0AD
:1046E000D801AA0FBB1FA30192010E94DB2428EE70
:1046F00033E040E050E00E949A2403C02FEF3FEFE8
:10470000A901F1E03F16A1F082E0381619F131104D
:1047100033C0C7BC2093220630932306409324065F
:104720005093250680916E00826080936E0024C0B5
:10473000D0928900C092880020931B0630931C06FB
:1047400040931D0650931E0680916F0082608093F7
:104750006F0012C0C092B300209314063093150668
:1047600040931606509317068091700082608093E4
:10477000700002C084E078CF0F900F900F900F90E0
:10478000DF91CF911F910F91FF90EF90DF90CF902D
:10479000BF90AF909F908F907F906F905F904F9061
:1047A0003F900895813039F018F0823051F008952B
:1047B00010926E00089580916F008D7F80936F003E
:1047C0000895809170008D7F8093700081E08093C8
:1047D000B0008091B100887F84608093B100109216
:1047E000B3000895CF93C82F809169018C1307C03F
:1047F000E2ECF0E084919FEF9093690101C08FEFAC
:104800000E94D22360E08C2FCF910C94B31E1F9294
:104810000F920FB60F9211242F933F934F935F93F4
:104820006F937F938F939F93AF93BF93EF93FF9378
:104830008091140690911506A0911606B091170666
:10484000892B8A2B8B2B51F190911106E091120646
:10485000F0911306808189278083809114069091BE
:104860001506A0911606B0911706181619061A0615
:104870001B06C4F48091140690911506A0911606AB
:10488000B09117060197A109B1098093140690937E
:104890001506A0931606B093170604C0809169010F
:1048A0000E94F223FF91EF91BF91AF919F918F9161
:1048B0007F916F915F914F913F912F910F900FBE1C
:1048C0000F901F9018950E94362608950E94971DFC
:1048D0000E9465240E94D400CBE6DFE10E94E9003B
:1048E0002097E1F30E946B1FF9CF0C940F250C94D5
:1048F000A7250895991B79E004C0991F961708F021
:10490000961B881F7A95C9F78095089597FB072E07
:1049100016F4009407D077FD09D00E94E62407FC26
:1049200005D03EF4909581959F4F089570956195BF
:104930007F4F0895A1E21A2EAA1BBB1BFD010DC0DB
:10494000AA1FBB1FEE1FFF1FA217B307E407F5073F
:1049500020F0A21BB30BE40BF50B661F771F881F1B
:10496000991F1A9469F760957095809590959B01B1
:10497000AC01BD01CF010895052E97FB1EF40094F4
:104980000E94D32457FD07D00E949A2407FC03D02D
:104990004EF40C94D32450954095309521953F4F7B
:1049A0004F4F5F4F089590958095709561957F4F1B
:1049B0008F4F9F4F08950E940025A59F900DB49F93
:1049C000900DA49F800D911D11240895AA1BBB1B5F
:1049D00051E107C0AA1FBB1FA617B70710F0A61BFF
:1049E000B70B881F991F5A95A9F780959095BC0120
:1049F000CD010895EE0FFF1F0590F491E02D09946D
:104A0000A29FB001B39FC001A39F700D811D11240F
:104A1000911DB29F700D811D1124911D0895CF939A
:104A2000DF938230910510F482E090E0E091280657
:104A3000F091290620E030E0A0E0B0E0309739F1B5
:104A40004081518148175907B8F04817590771F448
:104A500082819381109729F013969C938E931297DD
:104A60002CC0909329068093280627C02115310574
:104A700031F04217530718F0A901DB0101C0EF0123
:104A80009A01BD01DF010280F381E02DD7CF21150E
:104A90003105F9F0281B390B2430310580F48A8167
:104AA0009B816115710521F0FB019383828304C012
:104AB0009093290680932806FE01329644C0FE0199
:104AC000E20FF31F81939193225031093983288398
:104AD0003AC02091260630912706232B41F42091DD
:104AE000020130910301309327062093260620917E
:104AF0000001309101012115310541F42DB73EB778
:104B00004091040150910501241B350BE0912606CC
:104B1000F0912706E217F307A0F42E1B3F0B28178E
:104B2000390778F0AC014E5F5F4F2417350748F026
:104B30004E0F5F1F50932706409326068193919353
:104B400002C0E0E0F0E0CF01DF91CF910895CF9374
:104B5000DF93009709F487C0FC0132971382128219
:104B6000C0912806D0912906209781F420813181B7
:104B7000280F391F809126069091270682179307E8
:104B800079F5F0932706E09326066DC0DE0120E05C
:104B900030E0AE17BF0750F412964D915C91139719
:104BA0009D014115510509F1DA01F3CFB383A283C9
:104BB00040815181840F951F8A179B0771F48D9155
:104BC0009C911197840F951F029691838083129672
:104BD0008D919C911397938382832115310529F43C
:104BE000F0932906E09328063EC0D9011396FC9362
:104BF000EE9312974D915D91A40FB51FEA17FB0735
:104C000079F480819181840F951F0296D9011196C4
:104C10009C938E938281938113969C938E9312978B
:104C2000E0E0F0E08A819B81009719F0FE01EC0141
:104C3000F9CFCE01029628813981820F931F2091EE
:104C40002606309127062817390769F4309729F48A
:104C5000109229061092280602C013821282D09365
:104C60002706C0932606DF91CF91089581E090E05A
:104C7000F8940C945126F999FECF92BD81BDF89A13
:104C8000992780B50895262FF999FECF1FBA92BDB6
:104C900081BD20BD0FB6F894FA9AF99A0FBE01961D
:064CA0000895F894FFCF17
:104CA60000002A068000010000002C0100005802C6
:104CB6000000B004000060090000C012000080255A
:104CC600000040380000004B000080700000127A9F
:104CD60000000096000000E1000000C20100040090
:104CE60000000500010006000200030000127A0021
:104CF60000093D0080841E0040420F0020A10700ED
:104D060090D0030048E8010001FF000000007B018D
:104D16004E0123012B013E014D0100000000FD055F
:104D26000E069C09EE06A70D030AF1069F0AF40675
:104D36003A0EF00A7E0BF706AE0B48098D0EAE0E44
:104D4600420AB30B5209690F9B0F5509C70B580945
:104D5600F80F310C960D2B070F07FA06320740079E
:104D66004C077F077C088C07A407BC07D407EC0711
:104D760004081E0838084F0C580CD10C5A0D56085A
:104D860059085C085F0862088F0991098B09810E32
:104D9600850EB806650866086708680869086A081F
:104DA6006B086C086D086E086F0870087108720849
:104DB60073087408ED069F0800030506090A0B0030
:104DC6000102030405060708090A0B0C0D0300E09F
:104DD600C81000000102030405526564426F617247
:104DE6006400446562756767696E6720456E616237
:104DF6006C65640000000000B20675086324EE06C8
:104E060063246324F1066324F40663246324632481
:104E1600F7066324632463246324632463246324DE
:104E26006324632463246324632463246324632444
:104E36002B070F07FA06320740074C077F077C0847
:104E46008C07A407BC07D407EC0704081E0838081B
:104E56006324632463246324560859085C085F08A6
:104E6600620863246324EC0663246324B806650899
:104E760066086708680869086A086B086C086D08A0
:104E86006E086F0870087108720873087408ED06DA
:104E96009F0843726561746564204E65772053658B
:104EA60072766F204F6E204368616E6E656C2000CF
:104EB600536572766F2000203A200000000000F64D
:104EC6000504069C09EE06A70D030AF1069F0AF4DF
:104ED600063A0EF00A7E0BF706AE0B48098D0EAEAB
:104EE6000E420AB30B5209690F9B0F5509C70B589F
:104EF60009F80F310C960D2B070F07FA06320740FB
:104F0600074C077F077C088C07A407BC07D407EC6F
:104F16000704081E0838084F0C580CD10C5A0D56B9
:104F26000859085C085F0862088F0991098B098196
:104F36000E850EB806650866086708680869086A77
:104F4600086B086C086D086E086F087008710872A7
:104F56000873087408ED069F085374617465202D64
:104F660020436C6F7365005374617465202D204572
:104F7600786974005374617274696E67204C697342
:104F860074656E65722E2E2E0A0000000000471210
:104F96004A124D125012CA1007101D1020106F1021
:104FA600436C6F736520436F6D6D616E6400000026
:104FB600000047124A124D1250125312561259123D
:104FC6005C1200000000BC1F4A213E1F571F491FEC
:024FD6009A1F20
:00000001FF
